S01100002E2E2F50726F746575732E73313966
S32D0000C000000000205DC2000011C3000017C300001DC3000023C3000029C3000000000000000000000000000073
S32D0000C028000000002FC3000035C30000000000003BC3000041C3000001E000000DE0000019E0000025E0000032
S32D0000C05031E000003DE0000049E0000055E0000061E000006DE0000079E0000085E0000091E000009DE00000FC
S32D0000C078A9E00000B5E00000C1E00000CDE00000D9E00000E5E00000F1E00000FDE0000009E1000015E1000022
S32D0000C0A021E100002DE1000039E1000045E1000051E100005DE1000069E1000075E1000081E100008DE1000042
S32D0000C0C899E10000A5E10000B1E10000BDE10000C9E10000D5E10000E1E10000EDE10000F9E1000005E2000069
S32D0000C0F011E20000553701001DE2000029E2000035E2000041E200004DE2000059E2000065E2000071E200005A
S32D0000C1187DE2000089E2000095E20000A1E20000ADE20000B9E20000C5E20000D1E20000DDE20000E9E2000027
S32D0000C140F5E2000001E300000DE3000019E30000710E010025E3000031E300003DE3000049E3000055E300000A
S32D0000C16861E300006DE3000079E3000085E3000091E300009DE30000A9E30000B5E30000C1E30000CDE30000E5
S32D0000C190D9E30000E5E30000F1E30000690A010031090100CD09010085DD0000090B0100FDE3000009E400005F
S32D0000C1B815E400004CC7010000000020D01600004CC701000000FF1F00000000D0160020940400000000FF1F58
S32D0000C1E00000000080B489B000AFF860B9607A60BB68FB61FB68BB6100237B617A697B689A420BD2BA69131DFB
S32D0000C208BB61FB69191DF96112681A607B6904337B61EFE700BF2437BD4680BC704780B485B000AF786039609E
S32D0000C2307B68FB600023BB60BA683B689A4208D2FB681A1DFA6000221A60BB680433BB60F2E700BF1437BD46FE
S32D0000C25880BC704780B586B000AF72B6234B4CF220521A80214B4DF628121A80204B4FF4E9721A801F4B7B615F
S32D0000C2807B691F4A934214D27B691A1D7A611B683B617B691A1D7A611B68FB607B691A1D7A611B68BB60BA68E9
S32D0000C2A8F9683869FFF79AFFE6E77B69134A93420ED27B691A1D7A611B68FB607B691A1D7A611B68BB60B9688B
S32D0000C2D0F868FFF7A8FFECE70B4B7B600B4A7B681A6009F063FB62B601F014FE00F0C8F8FEE700BF0E20054054
S32D0000C2F800200540BCC10000D4C10000E4C1000008ED00E000C0000080B400AFFEE780B400AFFEE780B400AFF4
S32D0000C320FEE780B400AFFEE780B400AFFEE780B400AFFEE780B400AFFEE780B400AFFEE780B400AFFEE780B426
S32D0000C34800AFFEE7FFFFFFFFFFFFFFFFFFFFFFFFFFFFFFFFFFFFFFFFFFFFFFFFFFFFFFFFFFFFFFFFFFFFFFFF57
S32D0000C370FFFFFFFFFFFFFFFFFFFFFFFFFFFFFFFFFFFFFFFFFFFFFFFFFFFFFFFFFFFFFFFFFFFFFFFFFFFFFFFFC7
S32D0000C398FFFFFFFFFFFFFFFFFFFFFFFFFFFFFFFFFFFFFFFFFFFFFFFFFFFFFFFFFFFFFFFFFFFFFFFFFFFFFFFF9F
S32D0000C3C0FFFFFFFFFFFFFFFFFFFFFFFFFFFFFFFFFFFFFFFFFFFFFFFFFFFFFFFFFFFFFFFFFFFFFFFFFFFFFFFF77
S32D0000C3E8FFFFFFFFFFFFFFFFFFFFFFFFFFFFFFFFFFFFFFFFFFFFFFFFFFFFFFFFFFFFFFFFFFFFFFFFFEFFFFFF50
S32D0000C44010B5054C237833B9044B13B10448AFF300800123237010BDD01600200000000010C4000008B5034B47
S32D0000C4681BB103490348AFF3008008BD00000000D416002010C4000080B500AF4FF47A71174804F0BBFE40F62A
S32D0000C4901B01154804F0D3FE1449134804F0ECFE134807F05DFD0EA1D1E9000103F0FAFE2D2000F021F82D2006
S32D0000C4B800F09EF82D2000F017F92D2000F008FB232000F0C9FB232000F002FC2D2000F0BBFC0023184680BD69
S32D0000C4E0333333333333D33F1C17002000003443741A00200000000080B58CB002AF78602D237B6234A3D3E9B8
S32D0000C5080023C7E9062305237B615A233B610423FB60232000F024FD2FA1D1E9000103F0BDFE012300934FF0E7
S32D0000C53000022F4B786801F0CBF929A1D1E9000103F0B0FE4FF4877202216FF0220000F08FFF23A1D1E90001C9
S32D0000C55803F0A4FE786908F013FA02460B46786800F06EFD1CA1D1E9000103F097FED7E90623786A00F0D8FCD7
S32D0000C580386908F001FA02460B46786801F0CCFA13A1D1E9000103F085FEF86808F0F4F902460B46786800F036
S32D0000C5A84FFD0DA1D1E9000103F078FE7A6A1346DB079B1A5B00194609A3D3E90023084600F0B2FC00BF283724
S32D0000C5D0BD4680BDAFF300809A9999999999E93F9A9999999999C93F333333333333D33F008056400000000023
S32D0000C5F880B58EB000AF786005237B6308233B635A23FB620523BB625A237B6201233B625A23FB611923BB61E1
S32D0000C6205A237B610A233B612D23FB60786B08F0ABF902460B46786800F002FE24A1D1E9000103F02FFE4FF058
S32D0000C6480002254B786801F073F81FA1D1E9000103F024FE386B08F093F902460B46786800F0EEFC18A1D1E999
S32D0000C670000103F017FE4FF00002194B786801F053FA13A1D1E9000103F00CFE002203216FF0220000F0ECFEC3
S32D0000C6980DA1D1E9000103F001FE786800F0B4FE09A1D1E9000103F0F9FD00F0CDFE0B490B4804F0DDFD06A172
S32D0000C6C0D1E9000103F0EEFD00BF3837BD4680BD9A9999999999C93F9A9999999999D93F00805640000034426B
S32D0000C6E81C1700200000000080B586B000AF78600E237B6105233B614FF00002564B786800F09EFC50A1D1E917
S32D0000C710000103F0C7FD4FF00002524B786801F003FA4BA1D1E9000103F0BCFD5A2202216FF0220000F09CFE9A
S32D0000C73845A1D1E9000103F0B1FD386908F020F902460B46786800F07BFC3FA1D1E9000103F0A4FD4FF000028F
S32D0000C760404B786800F0E8FF39A1D1E9000103F099FD786908F008F902460B46192000F083F84FF00000384974
S32D0000C78803F08CFD374804F03BFA0346184608F009F902460B46C7E90223334B01221A604FF00002314BD7E9B8
S32D0000C7B0020108F0CFFB0346002B08D04FF47F012D4805F097F92A4B01221A6018E022A3D3E90023D7E902011C
S32D0000C7D808F0BCFB0346002B07D0FF21244805F085F9214B00221A6006E02249204805F07DF91D4B01221A6009
S32D0000C8001D4805F058F9D7E902231B4805F0A6FB0FA1D1E9000103F045FD194807F0FAFD03461849184608F092
S32D0000C8284FFC0346184608F0BDF802460B46786801F076F904A1D1E9000103F02FFD00BF1837BD4680BD00BFDE
S32D0000C8509A9999999999C93F9A9999999999E93F00001440008056400000E03F0C170020281700200000D03F22
S32D0000C8780C1A002000FFFF00741A002000003443F0B587B000AFF860C7E9002382A3D3E90023D7E9000108F0B6
S32D0000C8A007FA02460B46104619467FA3D3E9002308F0D4F802460B461046194608F068FB03467B61786908F0AF
S32D0000C8C85FF879A3D3E9002308F0C4F802460B461046194608F058FB03463B61764804F06DF9764804F06AF991
S32D0000C8F0F86808F09FFC03461946734801F010FEF86808F097FC03461946704801F008FE6C4804F045F9044653
S32D0000C918694804F041F903462344184608F030F84FF000024FF0804308F0BEF902460B4614461D463B695B009D
S32D0000C940184608F021F802460B4601210E462046294608F0F5FA0346002B01D100231E46F3B2002B21D05A485F
S32D0000C96804F04EF90346184608F01CF8574BD3E90023012408F0FEFA0346002B01D100231C46E3B2002BBFD003
S32D0000C9904F4804F039F90346184608F007F802460B464C49C1E90023B2E7F86807F0ECFF41A3D3E9002308F08D
S32D0000C9B851F802460B461046194608F02DFB034619463F4801F0A8FDF86807F0D9FF38A3D3E9002308F03EF8BE
S32D0000C9E002460B461046194608F01AFB03461946364801F095FD334804F0D2F80446304804F0CEF803462344C0
S32D0000CA08184607F0BDFF4FF000024FF0804308F04BF902460B4614461D467B695B00184607F0AEFF02460B4640
S32D0000CA3001210E462046294608F082FA0346002B01D100231E46F3B2002B21D0204804F0DBF80346184607F0BE
S32D0000CA58A9FF1E4BD3E90023012408F08BFA0346002B01D100231C46E3B2002BBFD0164804F0C6F8034618464D
S32D0000CA8007F094FF02460B461249C1E90023B2E700F0DEFC00BF1C37BD46F0BDAFF30080D34D621058D93240C1
S32D0000CAA80000000000E07340CDCCCCCCCCCCEC3F9A9999999999E93FEC160020F0160020F4160020FC16002076
S32D0000CAD00C1700200000002080B58AB000AF78600A237B625A233B620623FB615A23BB6109237B615A233B617C
S32D0000CAF80F23FB60786A07F043FF02460B46786800F09AFB4EA1D1E9000103F0C7FB386A07F036FF02460B46A4
S32D0000CB20786801F001F848A1D1E9000103F0BAFB5A2202216FF0220000F09AFC42A1D1E9000103F0AFFB4FF0B1
S32D0000CB480002414B786800F07BFA3DA1D1E9000103F0A4FB3D4B1B68002B1AD1F86907F00FFF02460B467868C1
S32D0000CB7000F06AFA34A1D1E9000103F093FBB86907F002FF02460B46786800F0D5FD2EA1D1E9000103F086FBE0
S32D0000CB981DE02E4B1B68012B19D1786907F0F0FE02460B46786800F04BFA25A1D1E9000103F074FB386907F071
S32D0000CBC0E3FE02460B46786800F0B6FD1EA1D1E9000103F067FB7B685B42184600F018FC4FF000004FF080415A
S32D0000CBE803F05CFBF86807F0CBFE02460B46786800F022FB12A1D1E9000103F04FFB4FF00002134B786800F015
S32D0000CC108BFF0DA1D1E9000103F044FB4FF000020E4B786800F00CFB5A2202216FF0220000F01EFC04A1D1E9D7
S32D0000CC38000103F033FB00BF2837BD4680BD00BF9A9999999999C93F00001040281700200080564000000840E3
S32D0000CC6080B586B000AF786001237B615A233B611D23FB60786907F087FE02460B46786800F0E2F912A1D1E9F2
S32D0000CC88000103F00BFB386907F07AFE02460B46786800F04DFD0CA1D1E9000103F0FEFAF86807F06DFE024664
S32D0000CCB00B46786800F0C4FA05A1D1E9000103F0F1FA00BF1837BD4680BD00BFAFF300809A9999999999C93F6A
S32D0000CCD880B58AB000AF78604FF00002564B786800F026FD50A1D1E9000103F0D7FA534807F052FB78622D23EA
S32D0000CD003B624DA3D3E90023C7E9062302237B6105233B610923FB604FF000024A4B786800F00AFD5A22022128
S32D0000CD286FF0220000F0A0FB4FF000024FF08043786800F085F97B6A022B06D14FF000023F4B786800F0ECFED2
S32D0000CD5022E07B6A012B0ED1386907F015FE02460B46786800F070F94FF00002364B786800F0DAFE10E07B6A07
S32D0000CD78002B0DD1F86807F003FE02460B46786800F05EF94FF000022D4B786800F0C8FE786907F0F5FD02460B
S32D0000CDA00B46786800F050F921A1D1E9000103F079FAD7E90623386A00F0BAF83B6A5942D7E90623084600F084
S32D0000CDC8B3F8786907F0DCFD02460B46786800F033FA4FF000001B4903F060FAD7E90623386A00F0A1F8786966
S32D0000CDF007F0CAFD02460B46786800F025F90CA1D1E9000103F04EFA3B6A5942D7E90623084600F08DF8786960
S32D0000CE1807F0B6FD02460B46786800F00DFA00BF2837BD4680BD00BF9A9999999999C93F333333333333E33FC2
S32D0000CE4000806640741A0020008056400000144080B584B000AF78602DA1D1E9000103F021FA2D4807F09CFAFD
S32D0000CE68F8604FF000022B4B786800F059FE26A1D1E9000103F012FAFB68022B0DD14FF00002254B786800F0F6
S32D0000CE90D7F94FF000024FF08043786800F04CFC12E0FB68012B06D14FF000021D4B786800F0C6F908E0FB686E
S32D0000CEB8002B05D14FF00002194B786800F0BCF911A1D1E9000103F0E9F94FF000024FF08043786800F0B0F923
S32D0000CEE00BA1D1E9000103F0DDF94FF000020F4B786800F019FE06A1D1E9000103F0D2F9462000F085FA00BFBE
S32D0000CF081037BD4680BD00BF9A9999999999C93F741A0020008056400000284000002040000010400080464034
S32D0000CF3080B584B000AFF860C7E90023F86808F079F903461946074801F0EAFAD7E9000103F0A8F9034801F069
S32D0000CF58A1FA00BF1037BD4680BD00BF0417002090B58BB000AF78604FF000022E4BC7E908234FF000022D4B7B
S32D0000CF80C7E906232C4803F03FFE0346012214464FF07A51184608F05DFB0346002B01D100231C46E3B2002BFD
S32D0000CFA800D0EBE7234807F031FA0346184607F0F9FC02460B46C7E90423D7E904231E4804F0C8FFD7E9082336
S32D0000CFD0786800F039F814A1D1E9000103F062F94FF00002174BC7E90223D7E90423D7E9020107F07BFB02469D
S32D0000CFF80B46786800F09CFB09A1D1E9000103F04DF9D7E90623786800F01AF804A1D1E9000103F043F900BF9C
S32D0000D0202C37BD4690BD00BF333333333333C33F00000840000041400C170020741A00200C1A00200080664016
S32D0000D048F0B587B000AFF860C7E9002360A3D3E90023D7E9000107F027FE02460B46104619465DA3D3E9002318
S32D0000D07007F0F4FC02460B461046194607F088FF03467B61786907F07FFC57A3D3E9002307F0E4FC02460B461E
S32D0000D0981046194607F078FF03463B61544803F08DFD544803F08AFDF86808F0BFF803461946514801F030FAC8
S32D0000D0C0F86808F0B7F8034619464E4801F028FA4A4803F065FD0446474803F061FD03462344184607F050FC88
S32D0000D0E84FF000024FF0804307F0DEFD02460B4614461D463B695B00184607F041FC02460B4601210E462046A9
S32D0000D110294607F015FF0346002B01D100231E46F3B2002B00D0D3E7F86807F02DFC30A3D3E9002307F092FC99
S32D0000D13802460B461046194607F06EFF034619462D4801F0E9F9F86807F01AFC26A3D3E9002307F07FFC024658
S32D0000D1600B461046194607F05BFF03461946254801F0D6F9214803F013FD04461E4803F00FFD0346234418464C
S32D0000D18807F0FEFB4FF000024FF0804307F08CFD02460B4614461D467B695B00184607F0EFFB02460B46012137
S32D0000D1B00E462046294607F0C3FE0346002B01D100231E46F3B2002B00D0D3E700F040F900BF1C37BD46F0BD5E
S32D0000D1D8D34D621058D932400000000000E07340CDCCCCCCCCCCEC3F9A9999999999E93FEC160020F016002066
S32D0000D200F4160020FC16002080B582B000AF7860786808F00FF803461946074801F080F9786808F007F8034656
S32D0000D2281946044801F078F900BF0837BD4680BDFC160020F4160020F0B587B000AFF860C7E9002364A3D3E9B8
S32D0000D2500023D7E9000107F02BFD02460B461046194661A3D3E9002307F0F8FB02460B461046194607F08CFEC3
S32D0000D27803467B61786907F083FB5BA3D3E9002307F0E8FB02460B461046194607F07CFE03463B61584803F01F
S32D0000D2A091FC584803F08EFCFB685B42184607F0C1FF03461946544801F032F9FB685B42184607F0B7FF0346ED
S32D0000D2C81946504801F028F94C4803F065FC0446494803F061FC03462344184607F050FB4FF000024FF0804389
S32D0000D2F007F0DEFC02460B4614461D463B695B00184607F041FB02460B4601210E462046294607F015FE034622
S32D0000D318002B01D100231E46F3B2002B00D0D3E7FB685B42184607F02BFB31A3D3E9002307F090FB02460B46C0
S32D0000D3401046194607F06CFE034619462E4801F0E7F8FB685B42184607F016FB26A3D3E9002307F07BFB0246F8
S32D0000D3680B461046194607F057FE03461946254801F0D2F8214803F00FFC04461E4803F00BFC03462344184656
S32D0000D39007F0FAFA4FF000024FF0804307F088FC02460B4614461D467B695B00184607F0EBFA02460B4601213C
S32D0000D3B80E462046294607F0BFFD0346002B01D100231E46F3B2002B00D0D3E700F03CF800BF1C37BD46F0BD5E
S32D0000D3E0D34D621058D932400000000000E07340333333333333EB3F666666666666E63FEC160020F01600202A
S32D0000D408F4160020FC16002080B582B000AF78607B685B42184607F009FF03461946084801F07AF87B685B42F4
S32D0000D430184607F0FFFE03461946044801F070F800BF0837BD4680BDF4160020FC16002080B500AF034801F075
S32D0000D45821F8034801F01EF800BF80BDF4160020FC16002000000000B0B588B000AFF860B9607A60FB68002BBE
S32D0000D48005DAFB685B421846FFF7C2FF02E0F868FFF7BAFE0023FB7602F02AFF02460B461046194607F0BCFDED
S32D0000D4A80346FB61BB68012B07D1974803F042F80346002B00F00E81F7E7BB68022B40F0D380924803F036F8DF
S32D0000D4D00346002B05D1904803F030F80346002B01D0012300E00023002B00F0F78002F0FFFE04460D46F86906
S32D0000D4F807F058FA02460B462046294607F0F2F802460B461046194601231C464FF00002804B07F02FFD034622
S32D0000D520002B01D100231C46E3B2002B00F09A80FFF78EFFFB68002B03DAF868FFF768FF04E0FB685B421846A4
S32D0000D548FFF75EFE6AA1D1E9000102F0A7FE02F0CBFE02460B461046194607F05DFD0346FB616D4806F052FF0B
S32D0000D570786179696B4804F091FC7B68B32B30DC786807F057FE03461946786908F044F80346002B12D0FB682F
S32D0000D5985B42184607F04AFE03461946604800F0BBFFF86807F042FE034619465D4800F0B3FF42E0F86807F032
S32D0000D5C039FE03461946584800F0AAFFFB685B42184607F02FFE03461946544800F0A0FF2FE0786807F026FEC6
S32D0000D5E803461946786908F013F80346002B12D0FB685B42184607F019FE03461946484800F08AFFF86807F0BF
S32D0000D61011FE03461946454800F082FF11E0F86807F008FE034619463F4800F079FFFB685B42184607F0FEFD02
S32D0000D638034619463B4800F06FFF2FA1D1E9000102F02CFEFB68002B05DAFB685B421846FFF7DAFE02E0F868B9
S32D0000D660FFF7D2FD28A1D1E9000102F01BFE2CE7BB68032B32D1274802F060FF0346002B07D0254802F05AFF1E
S32D0000D6880346002B01D0012300E00023002B21D002F02AFE04460D46F86907F083F902460B462046294607F0FC
S32D0000D6B01DF802460B461046194601231C464FF000021B4B07F05AFC0346002B01D100231C46E3B2002B00D113
S32D0000D6D8CDE700BF0AA1D1E9000102F0DFFDFFF7B3FE00BF2037BD46B0BD00BFAFF30080333333333333C33F3B
S32D0000D7007B14AE47E17AB43F9A9999999999B93F1017002014170020181700200000F03F741A00200C1A002096
S32D0000D728F4160020FC1600200000104000000000B0B58AB000AFF860C7E900234FF000025B4BD7E9000107F00F
S32D0000D75085F902460B46104619464DA3D3E9002307F07CF902460B46104619464AA3D3E9002307F073F90246DF
S32D0000D7780B461046194648A3D3E9002307F094FA02460B461046194607F0FEFB03467B6243A3D3E90023C7E955
S32D0000D7A00623786A07F0F0F841A3D3E9002307F055F902460B461046194607F0E9FB03467B613E4803F0FEF9AB
S32D0000D7C83D4803F0FBF9F86807F030FD034619463A4800F0A1FEFB685B42184607F026FD03461946364800F0FC
S32D0000D7F097FE324803F0D4F902467B695B009A42B4BF01230023DBB2002B00D0F1E7F86807F0BAF8D7E90623CD
S32D0000D81807F020F902460B461046194607F0FCFB03461946254800F077FEF86807F0A8F8D7E9062307F00EF93E
S32D0000D84002460B46144683F000452046294607F0E7FB034619461C4800F062FE174803F09FF902467B6A5B0093
S32D0000D8689A42B4BF01230023DBB2002B00D0F1E7124800F00FFE124800F00CFE00BF2837BD46B0BDAFF3008041
S32D0000D89070E20DA545DF913F0000000000E07340D34D621058D93240666666666666E63F9A9999999999E93F62
S32D0000D8B800800E40EC160020F0160020F4160020FC160020000000002DE9F0438BB000AFF860C7E900234FF033
S32D0000D8E000028B4BD7E9000107F0B8F802460B46104619467AA3D3E9002307F0AFF802460B461046194678A389
S32D0000D908D3E9002307F0A6F802460B461046194675A3D3E9002307F0C7F902460B461046194607F031FB0346C7
S32D0000D930FB6171A3D3E90023C7E90423F86907F023F86FA3D3E9002307F088F802460B461046194607F01CFB6C
S32D0000D95803467B626D4803F031F96D4803F02EF9F86807F063FC034619466A4800F0D4FDFB685B42184607F0B4
S32D0000D98059FC03461946664800F0CAFD02F0B0FC02460B461046194607F042FB03463B625C4803F0FDF802463D
S32D0000D9A87B6A5B009A42B4BF01230023DBB2002B4FD002F099FC80468946386A06F0F2FF02460B464046494651
S32D0000D9D006F08CFE02460B461046194601231E464FF000024FF0804307F0C8FA0346002B01D100231E46F3B265
S32D0000D9F8002BD1D0FB68BA6C02FB03F14FF00002464B0846FFF71CFB7B6A10337B623CA1D1E9000102F042FCC1
S32D0000DA20F86807F007FC034619463C4800F078FDFB685B42184607F0FDFB03461946384800F06EFD02F054FCDB
S32D0000DA4802460B461046194607F0E6FA03463B62A2E7F86806F094FFD7E9042306F0FAFF02460B46104619460F
S32D0000DA7007F0D6FA03461946284800F051FDF86806F082FFD7E9042306F0E8FF02460B46144683F000452046BF
S32D0000DA98294607F0C1FA034619461F4800F03CFD1A4803F079F80246FB695B009A42B4BF01230023DBB2002BEC
S32D0000DAC000D0F1E7154800F0E9FC154800F0E6FC00BF2C37BD46BDE8F08300BFAFF3008070E20DA545DF913F19
S32D0000DAE80000000000E07340D34D621058D93240666666666666E63F9A9999999999E93F9A9999999999B93F71
S32D0000DB1000800E40EC160020F0160020F4160020FC1600200000F03FB0B58AB000AFF860C7E900234FF000028C
S32D0000DB385F4BD7E9000106F08DFF02460B461046194651A3D3E9002306F084FF02460B46104619464EA3D3E93D
S32D0000DB60002306F07BFF02460B46104619464CA3D3E9002307F09CF802460B461046194607F006FA03467B62F2
S32D0000DB8847A3D3E90023C7E90623786A06F0F8FE45A3D3E9002306F05DFF02460B461046194607F0F1F903466E
S32D0000DBB07B61424803F006F8414803F003F8FB685B42184607F036FB034619463D4800F0A7FCF86807F02EFBB3
S32D0000DBD8034619463A4800F09FFC02F085FB02460B461046194607F017FA03463B61314802F0D2FF02467B6955
S32D0000DC005B009A42B4BF01230023DBB2002B00D0F1E7F86806F0B8FED7E9062306F01EFF02460B46144683F037
S32D0000DC2800452046294607F0F7F903461946234800F072FCF86806F0A3FED7E9062306F009FF02460B4610468F
S32D0000DC50194607F0E5F9034619461B4800F060FC164802F09DFF02467B6A5B009A42B4BF01230023DBB2002B59
S32D0000DC7800D0F1E7114800F00DFC114800F00AFC00BF2837BD46B0BD70E20DA545DF913F0000000000E073401C
S32D0000DCA0D34D621058D93240666666666666E63F9A9999999999E93F00800E40EC160020F0160020F416002099
S32D0000DCC8FC16002080B582B000AF786039607B68012B2FD13B684FF6FF7293422AD10121164802F0ABFC002103
S32D0000DCF0154802F0A7FC154A0121154800F090FB124A0321134800F08BFB134A0221134800F086FB082112489B
S32D0000DD1802F066FF1821114802F030FB0F21104802F02CFB0E210F4802F028FB00210E4803F048FA00BF0837F1
S32D0000DD40BD4680BDEC160020F016002000001041F4160020FC1600206666E640041700200C17002010170020C9
S32D0000DD6814170020181700201C17002080B500AF4FF6FF710120FFF7A5FF80BD80B500AF0F4BD3F8A03003F43F
S32D0000DD908053002B14BF01230023DBB2002B10D0094BD3F8A030084A23F48053C2F8A030064806F011FC064B5E
S32D0000DDB81B68054A23F40053136000BF80BD00BF00C00440941A0020C0F00F4080B400AF124B4FF480725A63D0
S32D0000DDE0114B5B69104A43F4005353610E4B1B680D4A43F4005313600A4B0C4A1A630C4BD3F888310A4A43F0A3
S32D0000DE088063C2F88831084B9B68074A43F08063936000BFBD4680BC704700BF00C00440C0F00F4003010A0061
S32D0000DE3000E100E080B400AF334B00225A70324B98221A70304B9B79DBB203F01003002B14BF01230023DBB201
S32D0000DE58002B00D0F2E72A4B9B79DBB29B08DBB203F00303022B14BF01230023DBB2002B00D0F0E7224B18223C
S32D0000DE801A71214B00225A71204B03F580531A461F4B53641C4B54225A711B4B9B79DBB203F02003002B0CBF1E
S32D0000DEA801230023DBB2002B00D0F2E7144B9B79DBB203F04003002B0CBF01230023DBB2002B00D0F2E70E4B77
S32D0000DED01B78DBB20C4A03F03F03DBB213700A4B9B79DBB29B08DBB203F00303032B14BF01230023DBB2002B4A
S32D0000DEF800D0F0E700231846BD4680BC704700BF00400640007004400000130180B500AF314B03F580539B6BA0
S32D0000DF202F4A43F4785302F580529363FFF752FFFFF780FF2B4B58221A602A4B1B684FF47A7202FB03F3284AE7
S32D0000DF481360274B1B681A46234B03F580535B6C1B0E03F00F030133B2FBF3F31A46214B1A601D4B03F5805375
S32D0000DF70DB6B1B4A43F0225302F58052D363184B03F580531B6B164A43F0006302F580521363174B4FF48072B1
S32D0000DF981A61642002F058F8134B5B69124A23F010035361104B00221A600F4B10225A610E4803F009FC02F044
S32D0000DFC00BFF02F069FF0C4802F0A4F80B4806F057FB4FF4FA6002F04FF900BF80BD00BF00700440581900207B
S32D0000DFE8541900205C19002000D003400C1A002050190020041B002080B500AFFEF79FF900BF80BD80B500AF77
S32D0000E010FEF799F900BF80BD80B500AFFEF793F900BF80BD80B500AFFEF78DF900BF80BD80B500AFFEF787F94A
S32D0000E03800BF80BD80B500AFFEF781F900BF80BD80B500AFFEF77BF900BF80BD80B500AFFEF775F900BF80BDE3
S32D0000E06080B500AFFEF76FF900BF80BD80B500AFFEF769F900BF80BD80B500AFFEF763F900BF80BD80B500AF09
S32D0000E088FEF75DF900BF80BD80B500AFFEF757F900BF80BD80B500AFFEF751F900BF80BD80B500AFFEF74BF9C2
S32D0000E0B000BF80BD80B500AFFEF745F900BF80BD80B500AFFEF73FF900BF80BD80B500AFFEF739F900BF80BD1F
S32D0000E0D880B500AFFEF733F900BF80BD80B500AFFEF72DF900BF80BD80B500AFFEF727F900BF80BD80B500AF45
S32D0000E100FEF721F900BF80BD80B500AFFEF71BF900BF80BD80B500AFFEF715F900BF80BD80B500AFFEF70FF939
S32D0000E12800BF80BD80B500AFFEF709F900BF80BD80B500AFFEF703F900BF80BD80B500AFFEF7FDF800BF80BD5B
S32D0000E15080B500AFFEF7F7F800BF80BD80B500AFFEF7F1F800BF80BD80B500AFFEF7EBF800BF80BD80B500AF83
S32D0000E178FEF7E5F800BF80BD80B500AFFEF7DFF800BF80BD80B500AFFEF7D9F800BF80BD80B500AFFEF7D3F8B5
S32D0000E1A000BF80BD80B500AFFEF7CDF800BF80BD80B500AFFEF7C7F800BF80BD80B500AFFEF7C1F800BF80BD99
S32D0000E1C880B500AFFEF7BBF800BF80BD80B500AFFEF7B5F800BF80BD80B500AFFEF7AFF800BF80BD80B500AFBF
S32D0000E1F0FEF7A9F800BF80BD80B500AFFEF7A3F800BF80BD80B500AFFEF79DF800BF80BD80B500AFFEF797F82D
S32D0000E21800BF80BD80B500AFFEF791F800BF80BD80B500AFFEF78BF800BF80BD80B500AFFEF785F800BF80BDD4
S32D0000E24080B500AFFEF77FF800BF80BD80B500AFFEF779F800BF80BD80B500AFFEF773F800BF80BD80B500AFFA
S32D0000E268FEF76DF800BF80BD80B500AFFEF767F800BF80BD80B500AFFEF761F800BF80BD80B500AFFEF75BF8A4
S32D0000E29000BF80BD80B500AFFEF755F800BF80BD80B500AFFEF74FF800BF80BD80B500AFFEF749F800BF80BD10
S32D0000E2B880B500AFFEF743F800BF80BD80B500AFFEF73DF800BF80BD80B500AFFEF737F800BF80BD80B500AF36
S32D0000E2E0FEF731F800BF80BD80B500AFFEF72BF800BF80BD80B500AFFEF725F800BF80BD80B500AFFEF71FF81C
S32D0000E30800BF80BD80B500AFFEF719F800BF80BD80B500AFFEF713F800BF80BD80B500AFFEF70DF800BF80BD4B
S32D0000E33080B500AFFEF707F800BF80BD80B500AFFEF701F800BF80BD80B500AFFDF7FBFF00BF80BD80B500AF6B
S32D0000E358FDF7F5FF00BF80BD80B500AFFDF7EFFF00BF80BD80B500AFFDF7E9FF00BF80BD80B500AFFDF7E3FF7B
S32D0000E38000BF80BD80B500AFFDF7DDFF00BF80BD80B500AFFDF7D7FF00BF80BD80B500AFFDF7D1FF00BF80BD75
S32D0000E3A880B500AFFDF7CBFF00BF80BD80B500AFFDF7C5FF00BF80BD80B500AFFDF7BFFF00BF80BD80B500AF9B
S32D0000E3D0FDF7B9FF00BF80BD80B500AFFDF7B3FF00BF80BD80B500AFFDF7ADFF00BF80BD80B500AFFDF7A7FFF3
S32D0000E3F800BF80BD80B500AFFDF7A1FF00BF80BD80B500AFFDF79BFF00BF80BD80B500AFFDF795FF00BF80BDB1
S32D0000E42080B584B000AFF8600B467A60FB72FB68FA7A1A71FB6800225A711749786807F009F90346002B02D095
S32D0000E448134B7B600AE04FF07E51786807F0EAF80346002B02D04FF07E537B60786806F0A1FA09A3D3E900238F
S32D0000E47006F0F4FA02460B461046194606F0D0FD0246FB681A60FB6818461037BD4680BDABAAAAAAAAAA2040BF
S32D0000E4980000404180B582B000AF78607B685B79002B09D07B6800225A717B6819791E230022034801F064FEE6
S32D0000E4C000BF0837BD4680BD5019002080B584B000AF786039603B687F2B02DD7F23FB7308E03B6813F1800F84
S32D0000E4E802DA8023FB7301E03B68FB737B685B79FA7B9A4209D07B68FA7B5A717B681979FA7B1E23034801F0BC
S32D0000E5103BFE00BF1037BD4680BD00BF50190020B0B584B000AF786039603749386807F073F80346002B02D095
S32D0000E538334B3B6008E03349386807F087F80346002B01D02F4B3B60386806F02BFA04460D467B681B681846AC
S32D0000E56006F024FA4FF00002294B06F0A1FB02460B462046294606F071FA02460B461046194606F04DFD03468C
S32D0000E5883B604FF00001386807F056F80346002B10D0386806F006FA17A3D3E9002306F059FA02460B461046EA
S32D0000E5B0194606F0EDFC0346FB6018E0386806F0F5F94FF00002134B06F048FA02460B46104619464FF0000279
S32D0000E5D80D4B06F069FB02460B461046194606F0D3FC0346FB60F9687868FFF76BFF00BF1037BD46B0BD00BFD6
S32D0000E60052B81E85EB51F43F0000C8C20000C842000059400000604080B483B000AF03460A46FB711346BB7163
S32D0000E628BB79002B03D1134B00221A7002E0114B01221A703823FB710E4B1A78FB791343FB710D4B9B78DBB2BC
S32D0000E6500B4A43F01003DBB29370094B9B78DBB2074A43F02003DBB29370054AFB79137100BF0C37BD4680BCBE
S32D0000E678704700BF2C1700200060064080B483B000AF01237B607B68312B04DC00BF7B6801337B60F7E700BF73
S32D0000E6A00C37BD4680BC704780B582B000AF03460A46FB711346BB71134B1B7800211846FFF7AAFF00F024F858
S32D0000E6C8104AFB79137100F01FF80E4ABB79137100F01AF80B4B9B78DBB20A4A23F02003DBB29370074B9B7844
S32D0000E6F0DBB2064A23F01003DBB29370FFF7C2FF00BF0837BD4680BD2D1700200060064080B483B000AF174BF2
S32D0000E7181B78002B24D100237B60154BDB78DBB203F00203002B0CBF01230023DBB2002B0DD07B6842F210727F
S32D0000E740934203DD0B4B01221A7004E07B6801337B6000BFE5E7084BDB78DBB2064A43F00203DBB2D37000E027
S32D0000E76800BF0C37BD4680BC704700BF2E1700200060064080B582B000AF0346FB71FB79184600F05FF800BF1E
S32D0000E7900837BD4680BD80B582B000AF03460A46FB711346BB7100F035F8FB795B00DBB21846FFF7E3FFBB7959
S32D0000E7B81846FFF7DFFF00F037F800BF0837BD4680BD80B500AFFF2000F03CF80346184680BD80B584B000AF81
S32D0000E7E00346FB7100F016F8FB795B005BB243F001035BB2DBB21846FFF7C0FFFFF7E5FF0346FB7300F014F80B
S32D0000E808FB7B18461037BD4680BD000080B400AF044B9B68034A43F48013936000BFBD4680BC704740F00F4014
S32D0000E83080B400AF044B5B68034A43F48013536000BFBD4680BC704740F00F4080B485B000AF0346FB710023D7
S32D0000E858BB73164BDB6A03F00043012B0CBF01230023DBB2002B03D0FB7B0133FB73F0E70E4BDB6A0D4A43F0A8
S32D0000E8800043D3620B4AFB7953630A4BDB6A03F40033002B0CBF01230023DBB2002B00D0F3E7044B9B6BBB738D
S32D0000E8A8BB7B18461437BD4680BC704700C00A4080B582B000AF204B03F580531B6B1E4A43F4805302F5805256
S32D0000E8D013631C4B4FF480721A651B4B5B691A4A43F480135361FFF7A3FF164B4FF400725A65144B4FF40072FC
S32D0000E8F89A65124B4FF40072DA65124B124A1A60104B124ADA6000237B607B68092B06DCFF20FFF72FFF7B6861
S32D0000E92001337B60F5E704A1D1E9000101F0BAFC00BF0837BD4680BD9A9999999999B93F0070044000A0044072
S32D0000E94840F00F4000C00A40000C00800500003E90B486B000AFF860B9607A60FB68534A93420AD1524B03F590
S32D0000E97080535B6B504A43F4806302F58052536345E0FB684D4A93420AD14B4B03F580535B6B494A43F400638A
S32D0000E99802F58052536336E0FB68474A93420AD1434B03F580535B6B414A43F4805302F58052536327E0FB687B
S32D0000E9C0404A93420AD13C4B03F580535B6B3A4A43F4005302F58052536318E0FB683A4A93420AD1344B03F544
S32D0000E9E880539B6A324A43F4806302F58052936209E02F4B03F580539B6A2D4A43F4006302F580529362FB6870
S32D0000EA10DB78DBB223F00C03DAB2FB68DA70FB6800229A70BB684FF47A7203FB02F27B681B0192FBF3F39CB20A
S32D0000EA38FB681B78DBB223F01F03FB75230A9BB2DBB203F01F03DAB2FB7D1343DAB2FB681A70E2B2FB685A70D8
S32D0000EA60BB684FF4FA4203FB02F27B681B0192FBF3F39AB263019BB2D31A9CB2FB689B7ADBB223F01F03FB75A0
S32D0000EA88E3B203F01F03DAB2FB7D1343DAB2FB689A72FB68DB78DBB243F00C03DAB2FB68DA7000BF1837BD4692
S32D0000EAB090BC704700A006400070044000B0064000C0064000D0064000A00E4080B483B000AF78607B681B7936
S32D0000EAD8DBB203F02003002B0CBF01230023DBB2002B00D0F2E77B68DB79DBB218460C37BD4680BC704780B440
S32D0000EB0083B000AF78600B46FB707B681B79DBB25BB2DB43DBB2DB09DBB2002B00D0F4E77B68FA78DA7100BF0F
S32D0000EB280C37BD4680BC704780B487B000AFF860B9607A60FB687B617B685A1E7A60002B14BF01230023DBB2DB
S32D0000EB50002B06D07B695A1C7A61BA68D2B21A70EEE700BF1C37BD4680BC704780B584B000AF786039607B68E8
S32D0000EB781B6BFB60FA683B689A4252D07B681B79002B35D07B6858787B6803F134010123FA6801F0F7F8034676
S32D0000EBA0002B14BF01230023DBB2002B01D001233CE07B6800221A717B685A6A7B681B6A1344FA689A4217D21C
S32D0000EBC87B68DB78FB72FB7A012B11D97B681B6AFA681344FB607B6858787B6803F134010123FA6801F0CEF879
S32D0000EBF0FB7A013BFB72EAE73B68002B15D07B6858787B6803F1340101233A6800F0DAFF0346002B14BF01239C
S32D0000EC180023DBB2002B01D0012303E07B683A681A63002318461037BD4680BD80B584B000AF78600021786820
S32D0000EC40FFF794FF0346FB73FB7B002B40F093807B681B78032B7DD17B685B79002B79D07B6800221A637B6800
S32D0000EC6834334FF4007200211846FFF75DFF7B68552283F832227B68AA2283F833227B68522283F834207B68E0
S32D0000EC90522283F835207B68612283F836207B68412283F837207B68722283F818227B68722283F819227B6887
S32D0000ECB8412283F81A227B68612283F81B227B681B69DAB27B6883F81C227B681B699BB21B0A9BB2DAB27B68D2
S32D0000ECE083F81D227B681B691B0CDAB27B6883F81E227B681B691B0EDAB27B6883F81F227B68DB68DAB27B6844
S32D0000ED0883F820227B68DB689BB21B0A9BB2DAB27B6883F821227B68DB681B0CDAB27B6883F822227B68DB686D
S32D0000ED301B0EDAB27B6883F823227B6858787B6803F134017B685A69012301F01FF87B6800225A717B685B7846
S32D0000ED5800220021184601F0E1F80346002B14BF01230023DBB2002B01D00123FB73FB7B18461037BD4680BD1E
S32D0000ED8080B582B000AF78600B467B807B68002B08D07B681B78002B04D07B68DB887A889A4201D0092311E0BE
S32D0000EDA87B685B78184601F03BF9034603F00103002B14BF01230023DBB2002B01D0032300E000231846083730
S32D0000EDD0BD4680BD80B586B000AF78607B681A687B689B8819461046FFF7CAFF0346FB75FB7D002B40F0AC804C
S32D0000EDF87B689B7903F02003002B00F0A5807B689B7903F04003002B1BD07B681B6858787B6803F128017B6844
S32D0000EE209A69012300F0B2FF0346002B14BF01230023DBB2002B01D001238AE07B689B7923F04003DAB27B689B
S32D0000EE489A717B681A687B68DB6919461046FFF789FE0346FB75FB7D002B75D17B681B6A3B613B690B331A78B9
S32D0000EE703B690B3342F02002D2B21A707B68DA683B691C33D2B21A707B68DB689BB21B0A9AB23B691D33D2B2AE
S32D0000EE981A707B68DB681A0C3B691E33D2B21A707B68DB681A0E3B691F33D2B21A707B681A693B691A33D2B246
S32D0000EEC01A707B681B699BB21B0A9AB23B691B33D2B21A707B681B691A0C3B691433D2B21A707B681B691B0C61
S32D0000EEE89BB21B0A9AB23B691533D2B21A700023FB603B691633FA68D2B21A70FB689BB21B0A9AB23B6917335A
S32D0000EF10D2B21A70FB681A0C3B691833D2B21A70FB681A0E3B691933D2B21A707B689B7923F02003DAB27B681A
S32D0000EF389A717B681B6801221A717B681B681846FFF774FE0346FB75FB7D18461837BD4680BD80B584B000AF2A
S32D0000EF6078607868FFF736FF0346FB73FB7B002B02D17B6800221A60FB7B18461037BD4680BD000080B588B02E
S32D0000EF8800AF7860396080233B610F23FB604FF0FF337B610223FB61FB69B3F5807F23D80123BB61BB69102BFC
S32D0000EFB01AD8FB69BA6902FB03F33A6803FB02F27B68D31ABB60BB68002B09DBBB687A699A4205D9BB687B6157
S32D0000EFD8FB693B61BB69FB60BB690133BB61E1E7FB695B00FB61D7E71D4BDB6A1C4A23F00803D3621A4BDB6A67
S32D0000F00023F47F2323F47F63BB613B695B081B029AB2FB68013B1B01DBB21A43BB691343114A43F46023D3623B
S32D0000F0280F4B5B6A03F00803002B0CBF01230023DBB2002B03D00A2001F01AF9F0E7084BDB6A074A43F00803A9
S32D0000F050D362054B1B6B044A43F48013136300BF2037BD4680BD00BF00100B4080B582B000AF786039607B681F
S32D0000F07800221A60414B424ADA62404BDB6A03F08073002B14BF01230023DBB2002B00D0F3E73A4B0022C3F8BB
S32D0000F0A0C020384B4FF481325A60364B28229A62344B4FF001125A643B689B6833491846FFF760FF2F4B5B6AC5
S32D0000F0C803F00303002B14BF01230023DBB2002B00D0F3E72C4B40F243421A602A4B40F243425A60284B4FF436
S32D0000F0F088629A60264B40F24342DA60244B40F243421A61224B40F243425A61214B03F580531B6B1F4A43F4CF
S32D0000F118003302F580521363184B4FF6FF721A63164B1B4A5A63154BDB6A144A43F00063D362124BDB6A03F0DB
S32D0000F1400063002B14BF01230023DBB2002B00D0F3E70C4B5B6A03F48033002B14BF01230023DBB2002B02D002
S32D0000F1687B6801221A60054B1B6B044A43F080031363002318460837BD4680BD00100B400080000160CC05009C
S32D0000F19000D0044000700440B3007F0080B400AF064B5A6A40F207331340002B14BF01230023DBB21846BD466D
S32D0000F1B880BC704700100B4080B485B000AF7860074B1B6B7A681340FB60FB68002B00D1F6E7FB68184614373B
S32D0000F1E0BD4680BC704700BF00100B4080B584B000AF78607B681B7803F03F03764A52F82330FB60FB68002B10
S32D0000F20805D17B681B78002B01D00123DCE0714B1B6B704A43F0800313636E4B5B6A03F00103002B14BF0123F1
S32D0000F2300023DBB2002B00D0F3E7684A7B685B689360FB6823F44003FB607B685B789B0503F44003FA68134380
S32D0000F258FB607B685B78022B03D1FB6843F40013FB607B685B78042B16D1FB6803F44033B3F5003F08D1FB68B2
S32D0000F28023F44033FB60FB6843F44033FB6007E0FB6823F44033FB60FB6843F40033FB604E4B5B684D4A9BB27C
S32D0000F2A853607B68DB68002B2AD0FB6803F44033B3F5403F03D0FB6843F40013FB607B681B7A002B03D0FB6892
S32D0000F2D043F01003FB607B68DB68012B03D9FB6843F02003FB607B68DB68B3F1FF3F0BD03A4B5A687B68DB68DD
S32D0000F2F81B04384913434B60FB6843F00203FB60344B00221A60334AFB68D3603248FFF753FF0346012B14BF19
S32D0000F32001230023DBB2002B09D02C4B1B6B2B4A43F4702343F001031363012348E0274B1B6B03F08003002B19
S32D0000F34814BF01230023DBB2002B07D0214B1B6B204A43F001131363012335E01D4B1B6B03F48033002B14BF06
S32D0000F37001230023DBB2002B08D0184B1B6B174A43F0011313634FF0FF3321E0FB6803F44033002B15D0114BE6
S32D0000F3981A697B681A61FB6803F44033B3F5803F0BD10C4B5A697B685A610A4B9A697B689A61084BDA697B68EF
S32D0000F3C0DA61064B1B6B054A43F001031363002318461037BD4680BD18BD010000100B4001000E0080B592B052
S32D0000F3E800AF7860396000237B643B68BB63994B7B637B6B002B02D140F601235FE3964B3B633B6B002B02D1AF
S32D0000F41040F60B2357E33B6B1B68FB62FB6A002B02D140F60B234EE37B6841F20932934200F23F837B68B3F54D
S32D0000F438985F08D87B68032B00F01A837B68092B00F0098331E37B68A3F59853013B082B00F22B8301A252F828
S32D0000F46023F000BF89F4000075F70000D1F900008BF70000C9F70000EFF8000037F9000079F8000093F80000A4
S32D0000F4887649786BFFF7EEFD78647B6C002B40F01083002387F84330002387F82B30002387F82A30002387F872
S32D0000F4B02930002387F84230002387F8283000233B7200237B720023FB6000233B7400237B6107F10803184637
S32D0000F4D8FFF788FE0346002B14BF01230023DBB2002B02D001237B64E8E240F24C4000F0BFFE08233B7200233F
S32D0000F5007B724FF4D573FB6000233B7400237B6107F108031846FFF769FEF863FB6B002B09D1BA69FB689A4253
S32D0000F52802D001237B64C9E2012387F84230012387F8283097F82830002B00F0A58037233B7200237B720023C4
S32D0000F550FB6000233B7400237B6107F108031846FFF744FEF863FB6B002B02D001237B64A8E269233B72002321
S32D0000F5787B720023FB6000233B7400237B6107F108031846FFF72EFE0346002B14BF01230023DBB2002B02D08E
S32D0000F5A001237B648EE2BB6903F44013002B6FD00023FB630A2000F05FFEFB6B0133FB6337233B7200237B72EB
S32D0000F5C80023FB6000233B7400237B6107F108031846FFF707FE0346002B14BF01230023DBB2002B02D001232E
S32D0000F5F07B6428E069233B7200237B7297F84230002B02D0184BFB6002E04FF44013FB6000233B7400237B615D
S32D0000F61807F108031846FFF7E5FD0346002B14BF01230023DBB2002B02D001237B6406E0BB69002B03DBFB6BF7
S32D0000F640632B00D8B6E77B6C002B40F03882FB6B632B0BD9002387F8423019E044170020481900200CBD0100F2
S32D0000F66800003040012387F8433097F84230002B0AD0002387F84230BB6903F08043002B02D0012387F84230E8
S32D0000F69097F82A30002B02D07B6B07221A6097F82930002B02D07B6B08221A6097F82B30002B02D07B6B04227B
S32D0000F6B81A6097F84330002B09D07B6B02221A6097F84230002B02D07B6B03221A6097F82B30002B0DD097F81C
S32D0000F6E04330002B09D07B6B05221A6097F84230002B02D07B6B06221A60924B00221A60904B00225A608F4B6E
S32D0000F70800229A608D4B0022DA608C4B00221A618A4B00225A61FB6A9A68FB6A5B6819461046FFF72BFC854B2C
S32D0000F73040F243421A60834B40F243425A60814B4FF488629A607F4B40F24342DA607D4B40F243421A617B4BCD
S32D0000F75840F243425A617A4B03F580531B6B784A43F4003302F580521363A7E1B86BFFF739FDF863FB6B002BCD
S32D0000F78000F09F8102237B649BE1BB6B002B02D10C237B6496E16D4BDB6A1B0A5B0003F4FF73FB63694BDB6AE5
S32D0000F7A81B0903F00F035A1CFB6B02FB03F3FB63FB6A9A68FB6BB2FBF3F2BB6B1A607DE1BB6B002B02D10C232D
S32D0000F7D07B6477E1BB6B1B68002B02D10C237B6470E1FFF7DBFC0346002B0CBF01230023DBB2002B3CD0534B19
S32D0000F7F800221A60514B00225A60504B00229A604E4B0022DA604D4B00221A614B4B00225A61FB6A9A68BB6BEE
S32D0000F8201B6819461046FFF7ADFB464B40F243421A60444B40F243425A60424B4FF488629A60404B40F243422C
S32D0000F848DA603E4B40F243421A613C4B40F243425A613B4B03F580531B6B394A43F4003302F58052136329E197
S32D0000F87040F60A237B6425E1BB6B002B02D10C237B641FE1314B5B68C3F30C02BB6B1A6018E1BB6B002B02D130
S32D0000F8980C237B6412E1FFF77DFC0346002B0CBF01230023DBB2002B19D0BB6B1B68B3F5805F02D30C237B6498
S32D0000F8C000E1224B5B68214A23F4FF5323F01F0353601E4B5A68BB6B1B68C3F30C031B4913434B60EEE040F64B
S32D0000F8E80A237B64EAE0BB6B002B02D10C237B64E4E0144B9B6A5B0803F00303FB63FB6B002B03D1BB6B00225B
S32D0000F9101A60D7E0FB6B012B03D1BB6B01221A60D0E0FB6B102B03D1BB6B02221A60C9E005237B64C6E0BB6B0A
S32D0000F938002B09D10C237B64C0E000BF00D004400070044000100B40FFF724FC0346002B0CBF01230023DBB2E3
S32D0000F960002B31D0BB6B1B68002B0AD1584B9B6A574A23F006039362554B554A9B6A9362A0E0BB6B1B68012BB6
S32D0000F9880CD1514B9B6A504A23F0060393624E4B9B6A4D4A43F0020393628FE0BB6B1B68022B0AD1484B9B6A0E
S32D0000F9B0474A23F006039362454B454A9B6A936280E005237B647DE040F60A237B6479E0BB6B002B02D10C23BC
S32D0000F9D87B6473E03C4BDB6A3B4A43F00063D362394BDB6A03F00063002B14BF01230023DBB2002B00D0F3E7ED
S32D0000FA00334B1B6B03F08003002B14BF01230023DBB2002B08D02E4B1B6B2D4A43F0800313637B6B00221A6065
S32D0000FA28294B5B6A03F48033002B14BF01230023DBB2002B07D07B6B1B68002B06D17B6B01221A6002E07B6B43
S32D0000FA5000221A607B6B1A68BB6B1A6032E0BB6B1C221A60BB6B043304221A60BB6B08334FF41E721A6025E044
S32D0000FA780220FFF7A1FB144B1B6B03F4E003002B14BF01230023DBB2002B07D00E4B1B6B0D4A43F4E003136353
S32D0000FAA004237B640A4B1B6B094A43F03203136308E040F609237B6404E000BF02E000BF00E000BF7B6C1846D5
S32D0000FAC84837BD4680BD00BF00100B4080B489B000AF786039607B687B61364B3B613B69002B01D100235FE0CB
S32D0000FAF03B691B68022B0BD03B691B68032B07D03B691B68072B03D03B691B68082B0BD12B4B5B6A03F00403F6
S32D0000FB18002B14BF01230023DBB2002B00D0F3E73B68FB61FB69002B3DD0FB69B3F5007F28BF4FF40073FB60FA
S32D0000FB40FB6803339B08BB61BB69002B2AD01C4B1B6B03F4E003002B14BF01230023DBB2002B09D0164B1B6B72
S32D0000FB68154A43F4E00343F02003136300231BE0114B5B6A03F40063002B0CBF01230023DBB2002B00D0F3E7F2
S32D0000FB900B497B691A1D7A610A6A1A60BB69013BBB61D1E7FA69FB68D31AFB61BEE7012318462437BD4680BC0B
S32D0000FBB8704700BF4417002000100B4080B58EB000AFB9607A601A460346FB731346BB73414B7B63FB7B002B15
S32D0000FBE002D1BB7B002B01D1042375E03D4B1B78DBB203F00103002B14BF01230023DBB2002B01D0032367E09B
S32D0000FC08BB68002B01D1002362E07B6B1B7B002B02D17B685B027B60BB7B012B28D111233B7500237B757B687F
S32D0000FC30BB6101233B77BB7B3B6207F11403194641F20230FFF7CEFB0346002B0CBF01230023DBB2002B38D009
S32D0000FC584FF40071B868FFF739FF0346002B14BF01230023DBB2002B2BD00023BB7328E012233B7500237B75EA
S32D0000FC807B68BB6101233B77BB7B3B6207F11403194641F20230FFF7A5FB0346002B0CBF01230023DBB2002B07
S32D0000FCA80FD0BB7B5B021946B868FFF70FFF0346002B14BF01230023DBB2002B01D00023BB73BB7B002B01D09F
S32D0000FCD0012300E0002300BF18463837BD4680BD301700200800002080B487B000AF786039607B68FB603B6818
S32D0000FCF87B617B69002B3DD07B69B3F5007F28BF4FF400733B617A693B69D31A7B613B6903339B083B613B6995
S32D0000FD20002BEAD0184B1B6B03F4E003002B14BF01230023DBB2002B0AD0134B1B6B124A43F4E00343F0100396
S32D0000FD4813634FF0FF3316E00D4B5B6A03F48063002B0CBF01230023DBB2002B00D0F3E7FB681A1DFA60064AD6
S32D0000FD701B6813623B69013B3B61D0E7012318461C37BD4680BC704700100B4080B58EB000AFB9607A601A469F
S32D0000FD980346FB731346BB735D4B7B63FB7B002B02D1BB7B002B01D10423ADE0594B1B78DBB203F00103002B38
S32D0000FDC014BF01230023DBB2002B01D003239FE0524B1B78DBB203F00403002B14BF01230023DBB2002B01D048
S32D0000FDE8022391E0BB68002B01D100238CE07B6B1B7B002B02D17B685B027B60BB7B012B28D118233B750023AA
S32D0000FE107B757B68BB6100233B77BB7B3B6207F11403194641F20230FFF7DCFA0346002B0CBF01230023DBB27B
S32D0000FE38002B38D04FF40071B868FFF751FF0346002B14BF01230023DBB2002B2BD00023BB7328E019233B75C9
S32D0000FE6000237B757B68BB6100233B77BB7B3B6207F11403194641F20230FFF7B3FA0346002B0CBF01230023BE
S32D0000FE88DBB2002B0FD0BB7B5B021946B868FFF727FF0346002B14BF01230023DBB2002B01D00023BB730D23EF
S32D0000FEB03B7500237B757B6B1B69BB6100233B7700233B6207F11403194641F20230FFF789FA0346002B14BFB3
S32D0000FED801230023DBB2002B01D0012314E07A6A0D4B1340002B01D001230DE07B6A03F4F853B3F5106F00D05A
S32D0000FF00D5E7BB7B002B01D0012300E0002300BF18463837BD4680BD30170020080000200880D9FF80B58CB092
S32D0000FF2800AF03463A60FB710B46BB713A4BBB62FB79002B01D0042369E0012387F82F30364B1B78DBB203F018
S32D0000FF500103002B14BF01230023DBB2002B01D0032358E0BB79032B50D801A252F823F081FF000089FF0000C1
S32D0000FF7899FF0000A9FF0000002387F82F3044E0BB6A9A683B681A60002387F82F303CE03B684FF400721A80A3
S32D0000FFA0002387F82F3034E009233B7200237B72BB6A1B69FB6000233B7400237B6107F10803194641F2023099
S32D0000FFC8FFF70CFA0346002B14BF01230023DBB2002B01D001231AE07B6A03F44003002B0CD13B6A9B0C03F074
S32D0000FFF07F035A1C7B6A1B0A03F00303013B9A403B681A60002387F82F3002E0042387F82F3097F82F30184681
S32D000100183037BD4680BD00BF301700200800002080B483B000AF0346FB71FB79002B01D0012302E0034B1B78A2
S32D00010040DBB218460C37BD4680BC70470800002080B483B000AF7860164B03F580539B6B144A43F0010302F599
S32D0001006880529363124A7B689360114B05225A600F4B1B680E4A43F0010313600C4B1B6803F08003002B0CBF0D
S32D0001009001230023DBB2002B00D0F3E7064B1B68054A23F00103136000BF0C37BD4680BC704700BF0070044080
S32D000100B80000044080B582B000AF786039607B68012B07D13B684FF6FF72934202D1034800F00EF800BF083727
S32D000100E0BD4680BD5019002080B500AF4FF6FF710120FFF7E3FF80BD80B483B000AF78607B6800221A707B68F9
S32D0001010818460C37BD4680BC7047000080B582B000AF78607B681B7883F00103DBB2002B21D0134B03F5805384
S32D000101301A464FF400639362104B4FF440721A620E4B4FF440725A620D4B1B68DA0F13445B104FF46142194604
S32D000101580A48FEF7FDFB642000F08AF87B6801221A70012300E0002318460837BD4680BD0070044000D00440E7
S32D000101805419002000B00E4080B582B000AF7860084611461A460346FB700B46BB7013467B707F210E48FEF773
S32D000101A8AAFC08210C48FEF7A6FCFB7819460A48FEF7A1FCBB7819460748FEF79CFC7B7819460548FEF797FC23
S32D000101D0FF210348FEF793FC00BF0837BD4680BD00B00E4080B487B000AFF860B9607A60FB681F4AA2FB0323E1
S32D000101F89B09BA6813447B61FB681B4AA2FB031292094FF47A7101FB02F29B1AFB60FB68DB03154AA2FB032339
S32D000102209B097A6813443B613B69DB0B7A6913447B613B69C3F30E033B610E4B1B687A699A4209D80B4B1B683A
S32D000102487A699A4206D1094B5B683A699A4201D9012300E00023002B00D0EAE700BF1C37BD4680BC704700BFC7
S32D00010270D34D621000D0034080B584B000AF7860074B1B68FB60064B5B68BB607B68BA68F9681846FFF7A6FF0C
S32D0001029800BF1037BD4680BD00D0034080B584B000AFC7E900010E4B1B68FB600C4B5B68BB604FF000020B4B12
S32D000102C0D7E9000104F0CAFB02460B461046194604F086FE0346BA68F9681846FFF782FF00BF1037BD4680BDE8
S32D000102E800D0034000408F4080B584B000AF134B1B68FB60114B5B68BB60F86804F030FB02460B46C7E900234C
S32D00010310B86804F029FB4FF000020B4B04F0C8FC02460B46D7E9000104F0E2F902460B46C7E90023D7E90023BF
S32D00010338104619461037BD4680BD00BF00D003400000E04080B483B000AF0B4B1B684FF47A7202FB03F37B607C
S32D00010360074B5B684FF47A7202FB03F3DB0B7A6813447B607B6818460C37BD4680BC704700D0034080B582B049
S32D0001038800AF78600B46FB70FB781946786800F005F87B6818460837BD4680BD80B483B000AF78600B46FB70FA
S32D000103B07B68FA781A707B681B781A46534B9B5C042B00F29E8001A252F823F0E10301001B0401005504010036
S32D000103D88F040100C90401004B4A7B681B7819464A4B53F8213040F2031142F82310484B5A697B681B7819461B
S32D00010400444B53F8213003F01F03012101FA03F3DB43414913404B6173E0404A7B681B7819463C4B53F82130FE
S32D0001042840F2031142F823103B4B5A697B681B781946364B53F8213003F01F03012101FA03F3DB4334491340A1
S32D000104504B6156E0334A7B681B7819462D4B53F8213040F2031142F823102F4B5A697B681B781946274B53F8B3
S32D00010478213003F01F03012101FA03F3DB43284913404B6139E0274A7B681B7819461F4B53F8213040F20311A3
S32D000104A042F82310224B5A697B681B781946194B53F8213003F01F03012101FA03F3DB431B4913404B611CE016
S32D000104C81A4A7B681B781946104B53F8213040F2031142F82310164B5A697B681B7819460A4B53F8213003F045
S32D000104F01F03012101FA03F3DB430F4913404B6100BF00BF0C37BD4680BC704718BE0100009004405CBE0100B6
S32D0001051800F00F4000A0044040F00F4000B0044080F00F4000C00440C0F00F4000D0044000F10F4080B485B09F
S32D0001054000AF78600023FB607B681B781A46364B9B5C042B5CD801A252F823F07105010091050100B105010011
S32D00010568D1050100F10501002E4B1B697A68127811462D4A52F8212002F01F02012101FA02F21340FB603FE0E3
S32D00010590284B1B697A6812781146254A52F8212002F01F02012101FA02F21340FB602FE0214B1B697A6812784B
S32D000105B811461D4A52F8212002F01F02012101FA02F21340FB601FE01A4B1B697A6812781146154A52F8212064
S32D000105E002F01F02012101FA02F21340FB600FE0134B1B697A68127811460D4A52F8212002F01F02012101FA74
S32D0001060802F21340FB6000BFFB68002B14BF01230023DBB218461437BD4680BC704700BF18BE010000F00F40B9
S32D000106305CBE010040F00F4080F00F40C0F00F4000F10F4080B584B000AF78600B46FB700B23FB73FA7BFB78D3
S32D000106581946786800F094F87B6818461037BD4680BD000080B485B000AF78607B68103B002B00DA1F335B110F
S32D00010680FB60FB68022B53D0FB68022B75DCFB68002B03D0FB68012B25D06EE0394BD3F880217B68103B594270
S32D000106A803F01F0301F01F0158BF4B42012101FA03F332491343C1F88031304B1A687B68103B594203F01F0330
S32D000106D001F01F0158BF4B42012101FA03F3294913430B6049E0274BD3F884217B68103B594203F01F0301F026
S32D000106F81F0158BF4B42012101FA03F31F491343C1F884311D4B5A687B68103B594203F01F0301F01F0158BFA0
S32D000107204B42012101FA03F3164913434B6024E0144BD3F888217B68103B594203F01F0301F01F0158BF4B4240
S32D00010748012101FA03F30D491343C1F888310B4B9A687B68103B594203F01F0301F01F0158BF4B42012101FA49
S32D0001077003F3044913438B6000BF00BF1437BD4680BC704700E100E080B584B000AF78600B46FB701346BB7026
S32D000107987B68FA781A70BB78FB737B681B781A46574B9B5C042B00F2A68001A252F823F0CD0701001908010005
S32D000107C065080100FD080100B1080100FB7B1B0403F470234D497A68127810464C4A52F8202043F4897343F0DF
S32D000107E8010341F82230494B5A697B681B781946454B53F8213003F01F03012101FA03F3DB43424913404B612B
S32D000108106720FFF72BFF72E0FB7B1B0403F470233D497A6812781046394A52F8202043F4897343F0010341F8A9
S32D000108382230384B5A697B681B781946324B53F8213003F01F03012101FA03F3DB43314913404B616820FFF7CE
S32D0001086005FF4CE0FB7B1B0403F470232C497A6812781046264A52F8202043F4897343F0010341F82230274B82
S32D000108885A697B681B7819461F4B53F8213003F01F03012101FA03F3DB43204913404B616920FFF7DFFE26E093
S32D000108B0FB7B1B0403F470231B497A6812781046134A52F8202043F4897343F0010341F82230164B5A697B68F1
S32D000108D81B7819460C4B53F8213003F01F03012101FA03F3DB430F4913404B616B20FFF7B9FE00E000BF00BFD9
S32D000109001037BD4680BD00BF18BE0100009004405CBE010000F00F4000A0044040F00F4000B0044080F00F4067
S32D0001092800D0044000F10F40B0B48BB000AF224B3C1D1D460FCD0FC495E80F0084E80F0000237B627B6A072B08
S32D0001095030DC1C4BD3F8A0207B6A9B0028333B4453F8243C012101FA03F31340002B14BF01230023DBB2002B12
S32D0001097818D0134A7B6A52F823305A1C10497B6A41F823200D4BD3F8A0207B6A9B0028333B4453F8243C01214F
S32D000109A001FA03F307491340C1F8A0307B6A01337B62CBE700BF2C37BD46B0BC704700BF60BF010000A0044058
S32D000109C880190020B0B489B000AF224B3C1D1D460FCD0FC495E8030084E803000023FB61FB69052B30DC1C4BAE
S32D000109F0D3F8A020FB699B0020333B4453F81C3C012101FA03F31340002B14BF01230023DBB2002B18D0FB692A
S32D00010A180833124A52F823200132104941F823200D4BD3F8A020FB699B0020333B4453F81C3C012101FA03F319
S32D00010A4007491340C1F8A030FB690133FB61CBE700BF2437BD46B0BC704700BF80BF010000B0044080190020C9
S32D00010A68B0B48DB000AF234B3C461D460FCD0FC40FCD0FC495E8070084E807000023FB62FB6A0A2B30DC1C4BDA
S32D00010A90D3F8A020FB6A9B0030333B4453F8303C012101FA03F31340002B14BF01230023DBB2002B18D0FB6A63
S32D00010AB80E33124A52F823200132104941F823200D4BD3F8A020FB6A9B0030333B4453F8303C012101FA03F34E
S32D00010AE007491340C1F8A030FB6A0133FB62CBE700BF3437BD46B0BC704700BF98BF010000900440801900201F
S32D00010B08B0B487B000AF214B3C461D460FCD0FC42B68236000237B617B69042B30DC1C4BD3F8A0207B699B00CF
S32D00010B3018333B4453F8183C012101FA03F31340002B14BF01230023DBB2002B18D07B691933124A52F82320C9
S32D00010B580132104941F823200D4BD3F8A0207B699B0018333B4453F8183C012101FA03F307491340C1F8A0305C
S32D00010B807B6901337B61CBE700BF1C37BD46B0BC704700BFC4BF010000D004408019002080B483B000AF78606A
S32D00010BA87B681B781A46044B53F8223018460C37BD4680BC704700BF8019002080B483B000AF78607B681B78E9
S32D00010BD01946044B002243F8212000BF0C37BD4680BC70478019002080B483B000AF78600B46FB707B68FA78FA
S32D00010BF81A707B6818460C37BD4680BC7047000080B586B000AF78607B681B781A463E4B53F822303B617B685D
S32D00010C201B781A463B4B9B5CFB733B69DBB203F01F03DAB2384B1A723B69DBB203F01F03DAB2354B5A72354B48
S32D00010C481022C3F88820FB7B002B13D13049324800F05AFA304B1B6803F08003802B14BF01230023DBB2002B3B
S32D00010C7000D0F3E72A4B1B697B6112E02649294800F046FA274B1B6803F08003802B14BF01230023DBB2002BEC
S32D00010C9800D0F3E7214B1B697B611E4BD3F888311C4A43F01003C2F888311A4B9B68194A43F0100393607B69C3
S32D00010CC09BB2184603F050FE0DA3D3E9002303F0C5FE02460B46104619460BA3D3E9002303F0E6FF02460B4688
S32D00010CE81046194604F098F90346BB60BB6818461837BD4680BD00BFA4703D0AD7A30A4000000000E0FFEF4043
S32D00010D10DCBE010038BE01006019002000E100E000B0034000B00B4080B586B000AF78607B681B781A46234BA4
S32D00010D3853F822303B617B681B781A46204B9B5CFB733B69DBB203F01F03DAB21D4B1A723B69DBB203F01F03A1
S32D00010D60DAB21A4B5A72FB7B002B13D11749184800F0CEF9164B1B6803F08003802B14BF01230023DBB2002BD4
S32D00010D8800D0F3E7104B1B697B6112E00D490F4800F0BAF90D4B1B6803F08003802B14BF01230023DBB2002BC7
S32D00010DB000D0F3E7074B1B697B617B6918461837BD4680BDDCBE010038BE01007019002000B0034000B00B40BE
S32D00010DD898B500AF204B5C221A701F4B10225A701D4B41F234225A801B4B45F278629A80194B10229A71184BB7
S32D00010E000722DA71164B4FF4C022DA60144B1F221A72134B1F225A721149124800F078F90F49114800F074F9D5
S32D00010E280F4800F0D2F80D4800F0CFF80A490C4800F06AF90849094800F066F9094A064B14460FCB84E80F0040
S32D00010E50064B5C221A70054B0422DA7100BF98BD6019002000B0034000B00B407019002080B500AF064B1B685D
S32D00010E780133054A136000F03DF8044B0122C3F80C2100BF80BD00BF041A00200070034080B500AF0C4B0122CC
S32D00010EA01A600C4800F01AF8094B0322C3F80821094BD3F88831084A43F01003C2F88831054B9B68044A43F03F
S32D00010EC81003936000BF80BD00700340A086010000E100E080B483B000AF7860044A7B68C2F8003100BF0C3752
S32D00010EF0BD4680BC704700BF0070034080B584B000AF174B1B68FB60FB68002B24D0FB685B78FB71FB689B6889
S32D00010F18184600F023F80346BB71BB79002B13D0FB685B68012B0FDDFB689B681B69BB60BB68002B08D0BB68FE
S32D00010F405B685A1CBB685A60BB681B69BB60F3E7FB68DB68FB60D7E700BF1037BD4680BD001A002080B584B028
S32D00010F6800AF78607868FFF7DBFEF8607B689B695B78FB72FB7A002B0FD17B68DB68FA689A420ADD7B689B69F3
S32D00010F9001225A707B685B685A1C7B685A60012313E0FB7A012B0FD17B689B68FA689A420ADA7B689B690022E3
S32D00010FB85A707B685B685A1C7B685A60012300E0002318461037BD4680BD80B485B000AF78607B681B6A23F010
S32D00010FE040027B681A627B685B6A23F00B027B685A627B685B6A43F007027B685A627B685B6A43F080027B6817
S32D000110085A627B681B6803F08003002B0CBF01230023DBB2002B00D0F3E77B685B6A03F04003402B0CBF01234A
S32D000110300023DBB2002B01D0012364E00023FB817B68DB6CFB817B689B6C9AB2FB891344FB817B685B6C9AB2B5
S32D00011058FB891344FB817B681B6C9AB2FB891344FB817B68DB6B9AB2FB891344FB817B689B6B9AB2FB89134429
S32D00011080FB81FB895B08FB81FB896FEA43436FEA5343FB81FA897B68DA620023FB817B68DB6EFB817B689B6EBF
S32D000110A89AB2FB891344FB817B685B6E9AB2FB891344FB817B681B6E9AB2FB891344FB817B68DB6D9AB2FB891D
S32D000110D01344FB817B689B6D9AB2FB891344FB81FB895B08FB81FB896FEA43436FEA5343FB81FA897B681A637C
S32D000110F87B685B6A23F080027B685A62002318461437BD4680BC704780B483B000AF786039603B681B781A460E
S32D000111207B689A603B685B781A467B68DA603B685B881A467B689A613B689B881A467B68DA613B689B791A46B1
S32D000111487B681A623B68DB791A467B685A623B68DA687B681A653B681B7A1A467B681A603B685B7A1A467B682C
S32D000111705A6000BF0C37BD4680BC704780B483B000AF78607B6818460C37BD4680BC704780B582B000AF786048
S32D0001119839607B68012B07D13B684FF6FF72934202D10348FFF7E6FF00BF0837BD4680BD081A002080B500AF1D
S32D000111C04FF6FF710120FFF7E3FF80BD80B483B000AF78600B46FB707B68FA781A707B684FF4FA725A807B683D
S32D000111E840F6C4129A807B68034A9A607B6818460C37BD4680BC7047000080BF80B483B000AF786039603B68A5
S32D00011210B3F5FA7F04DB3B6840F6C412934204DD7B684FF4FA725A8004E03B689AB27B685A8000BF00BF0C378D
S32D00011238BD4680BC704780B483B000AF786039603B68B3F5FA7F04DB3B6840F6C412934204DD7B6840F6C41213
S32D000112609A8004E03B689AB27B689A8000BF00BF0C37BD4680BC70472DE9904385B000AF786039604FF0000140
S32D00011288386804F0C5F90346002B02D04FF000033B603249386804F0D9F90346002B01D02E4B3B607B689B68A2
S32D000112B01946386804F0A6F90346002B00D04BE07B683A689A607B685C887B689B881A467B685B88D31A184651
S32D000112D803F056FB4FF00002214B03F0E5FC02460B4690469946386803F05CFB02460B464046494603F0AEFBA0
S32D0001130002460B461046194603F06AFE03469BB22344FB81FB897B73FB891B0A9BB23B737F211248FDF7EBFBB2
S32D0001132805211048FDF7E7FB7B681B7819460D48FDF7E1FB3B7B19460A48FDF7DCFB7B7B19460848FDF7D7FBAB
S32D00011350FF210648FDF7D3FB00BF1437BD46BDE8908300BF000034430080664000B00E4080B582B000AF786031
S32D00011378B84B4FF48072DA60B74B4FF480729A64B54B4FF480721A64B34B4FF480725A64B14B4FF48072DA6090
S32D000113A0B04B5B69AF4A43F008035361AE4B5B69AD4A43F480235361AB4B5B69AA4A43F480335361A84B5B692F
S32D000113C8A74A43F400335361A54B1B68A44A43F008031360A24B5B69A14A43F0080353619E4B1B689D4A43F0C1
S32D000113F0080313609A4B4FF480725A62984B4FF480721A62954B4FF480721A61934B4FF480725A61914B4FF469
S32D0001141880729A618F4B4FF48072DA618D4B4FF480721A638B4B4FF480725A63894B4FF480729A63874B4FF401
S32D000114408072DA63854B4FF480721A64834B4FF480725A64814B4FF480729A647F4B4FF48072DA64814B4FF4BF
S32D0001146880721A607F4B4FF480729A607D4B4FF48072DA607B4B4FF480721A61784B5B69774A43F4407353615D
S32D00011490744B5B69734A43F47F2343F0F0035361734B5B69724A43F01D035361E221786800F0A8FD1D2178685F
S32D000114B800F04AFE0221786800F046FE0421786800F042FEE021786800F098FD0121786800F03AFE6420FEF758
S32D000114E0CBFEE021786800F08DFD0321786800F02FFE0121786800F085FD0120FEF7BCFEE621786800F07EFD02
S32D000115080121786800F020FEA021786800F01CFEFF21786800F018FEB021786800F06EFD1C21786800F010FECC
S32D000115300F21786800F00CFE0121786800F008FE3F21786800F004FE0021786800F000FEEF21786800F0FCFD90
S32D000115580021786800F0F8FDB421786800F04EFD0121786800F0F0FD9921786800F0ECFD0021786800F0E8FD66
S32D000115804521786800F0E4FD0221786800F0E0FD0021786800F0DCFD0021786800F0D8FD0021786800F0D4FD03
S32D000115A8B621786800F02AFD0121786800F0CCFD0921786800F0C8FD0021786800F0C4FD0E21786800F0C0FD5E
S32D000115D00221786800F0BCFD0021786800F0B8FD0021786800F0B4FDBA21786800F00AFD0F21786800F0ACFD9D
S32D000115F86420FEF73DFE3A21786800F0FFFC6021786800F0A1FD2A21786800F0F7FC0021786800F099FD002145
S32D00011620786800F095FD0121786800F091FD3F21786800F08DFD2B21786800F0E3FC0021786800F085FD002170
S32D00011648786800F081FD0021786800F07DFDEF2178680BE000B0044000A0044080F00F4040F00F4000C00440C5
S32D00011670C0F00F4000F06CFD3621786800F0C2FC0021786800F064FDF021786800F0BAFC0421786800F05CFDD7
S32D00011698B821786800F0B2FC0F21786800F054FD0121786800F050FD314B1B68304A43F0080313606420FEF799
S32D000116C0DBFD3621786800F09DFC0021786800F03FFDF021786800F095FC0421786800F037FD0121786800F0A9
S32D000116E8BCF91E226F21786800F082F8AF225621786800F0DBF80021786800F00AFA012301221C49786800F0A8
S32D000117102BFA2921786800F075FC6420FEF7ACFDBE21786800F06EFC0E21786800F010FDF021786800F00CFDC9
S32D000117380121786800F008FD0021786800F004FD0021786800F000FD0F21786800F0FCFC786800F028FA01219F
S32D00011760786800F0DAF90021786800F0AFF900BF0837BD4680BD00BF40F00F40D8BF010080B582B000AF78601C
S32D000117887B680022DA617B6801221A627B680E225A607B681A229A607B6800225A617B6800229A617B684FF4A4
S32D000117B0A072DA607B68F0221A617B6800221A70786801F0F9F97B6818460837BD4680BD80B582B000AF78604E
S32D000117D8064B1B78002B05D1044B01221A707868FFF7C2FD00BF0837BD4680BD501A002080B58AB002AFF8602C
S32D00011800B9607A607E23009362237A68B968F86800F08DFE40F24E733B610023FB61FA693B699A4240DA002301
S32D00011828BB61214AFB6913441B781A46BB69934232DAFB6901331C4AD35C002B06D1FF23FB75FF23BB75FF2322
S32D000118507B7512E0FB690133154AD35C012B06D1D423FB750023BB7526237B7505E0B523FB75BA23BB75B0235E
S32D000118787B757B7DBA7DF97DF86800F0C9F80246FB68DA61F86801F093F9F86801F0CCF8BB690133BB61C4E7A4
S32D000118A0FB690233FB61BAE700BF2037BD4680BD0C00002080B58AB002AFF860B9607A602723009395237A681F
S32D000118C8B968F86800F02FFE40F2E6333B610023FB61FA693B699A4240DA0023BB61214AFB6913441B781A4698
S32D000118F0BB69934232DAFB6901331C4AD35C002B06D1FF23FB75FF23BB75FF237B7512E0FB690133154AD35C87
S32D00011918012B06D10023FB750023BB7500237B7505E0D423FB750023BB7526237B757B7DBA7DF97DF86800F0D7
S32D000119406BF80246FB68DA61F86801F035F9F86801F06EF8BB690133BB61C4E7FB690233FB61BAE700BF20372E
S32D00011968BD4680BD5C07002080B485B000AF78600B46FB70FB78062B29D801A252F823F0AD190100A5190100B6
S32D00011990B3190100BB190100C3190100C9190100D11901006FF07F43FB6014E00023FB6011E04FF47F03FB60DC
S32D000119B80DE04FF47F43FB6009E0FF23FB6006E04FF41903FB6002E0044BFB6000BFFB6818461437BD4680BC17
S32D000119E0704700BF9999990080B584B000AF786039603B681B0CFB733B681B0ABB733B687B737B7BBA7BF97BB0
S32D00011A08786800F005F8034618461037BD4680BD80B487B000AF7860084611461A460346FB700B46BB70134634
S32D00011A307B70FB789B08DBB27B61BB789B08DBB23B617B789B08DBB2FB607B691A033B699B011A43FB68134349
S32D00011A5818461C37BD4680BC704780B582B000AF78600B46FB70FB7819467868FFF77CFF03461946786800F073
S32D00011A8004F800BF0837BD4680BD80B582B000AF7860396039687868FFF7A6FF02467B681A62786801F088F862
S32D00011AA8786800F0E9FB00BF0837BD4680BD80B582B000AF7860786800F0DEFB00BF0837BD4680BD80B582B0E1
S32D00011AD000AF78600B46FB70FB7819467868FFF747FF03461946786800F004F800BF0837BD4680BD80B582B09D
S32D00011AF800AF7860396039687868FFF771FF02467B681A62786801F053F800BF0837BD4680BD80B582B000AFA1
S32D00011B2078600B46FB70FB7819467868FFF720FF03461946786800F004F800BF0837BD4680BD80B582B000AF73
S32D00011B487860396039687868FFF74AFF02467B68DA61786801F02CF800BF0837BD4680BD80B586B000AFF86032
S32D00011B70B9607A603B6000237B617B69BA6813441B78002B0FD07B69BA6813441B783A687968F86800F00AFEF4
S32D00011B987B680C337B607B6901337B61E9E700BF1837BD4680BD80B582B000AF7860FCF77FFE67210120FCF715
S32D00011BC0EAFD00210220FCF7E6FDA0210320FCF7E2FD50210420FCF7DEFD20210520FCF7DAFD20210620FCF753
S32D00011BE8D6FD77210720FCF7D2FD00210820FCF7CEFD00210920FCF7CAFD00210A20FCF7C6FD04210B20FCF72B
S32D00011C10C2FD7B684FF0FF32DA637B684FF0FF321A6400BF0837BD4680BD00000000000080B586B000AFF860D5
S32D00011C38B9607A600020FCF7CCFD0346FB75FB7D03F00203002B00F0CE80FCF7DFFDE020FCF790FD0220FEF7B6
S32D00011C600BFBFCF7E5FD0120FEF706FBFCF7D2FDA520FCF783FD0120FEF7FEFAFCF7A5FD03469BB21B02BB82D6
S32D00011C88FCF79FFD03469AB2BB8A1343BB82FCF798FD03469BB21B027B82FCF792FD03469AB27B8A13437B828A
S32D00011CB0BB8A1B09BB827B8A1B097B82FCF7B8FDFB68DB6BB3F1FF3F34D1FB681B6CB3F1FF3F2FD1BA8AFB688E
S32D00011CD8DA637A8AFB681A647B8AC3F57F630F337B82BB8A184602F04BFE49A3D3E9002302F0B0FE02460B46FB
S32D00011D001046194603F08CF90246BB681A607B8A184602F039FE42A3D3E9002302F09EFE02460B461046194676
S32D00011D2803F07AF902467B681A605AE0FB68DA6BBB8AD31A1946F86800F074F80346632B0CDCFB681A6C7B8AA5
S32D00011D50D31A1946F86800F069F80346632B01DC012300E00023002B2FD0BA8AFB68DA637A8AFB681A647B8A94
S32D00011D78C3F57F630F337B82BB8A184602F000FE23A3D3E9002302F065FE02460B461046194603F041F9024613
S32D00011DA0BB681A607B8A184602F0EEFD1CA3D3E9002302F053FE02460B461046194603F02FF902467B681A6048
S32D00011DC80FE0BB68164A1A607B68154A1A60FB684FF0FF32DA63FB684FF0FF321A64002310E001230EE0BB689B
S32D00011DF00D4A1A607B680C4A1A60FB684FF0FF32DA63FB684FF0FF321A64002318461837BD4680BDAFF30080AD
S32D00011E18144001144001B43F1EE0011EE001AE3F000080BF80B483B000AF786039603B68002B02DA3B685B4263
S32D00011E403B603B6818460C37BD4680BC704780B584B000AF786039600023FB60786800F0D2FAFB683A6813449F
S32D00011E681B78002B12D07B6859697B689869FB683A6813441B780246786800F079FC786800F0D1FAFB68013374
S32D00011E90FB60E6E700BF1037BD4680BD80B592B000AF786039604FF00001386803F0C8FB0346002B1FD0386885
S32D00011EB803F0D6FB03467B64786C03F0B7F903461946386803F0FCF803461F49184603F001FA0346184603F0C2
S32D00011EE0C3FB03463B6407F10C003B6C7A6C194904F04EFC22E03B6883F000433B60386803F0B2FB03467B649E
S32D00011F08786C03F093F903461946386803F0D8F803460D49184603F0DDF90346184603F09FFB03463B6407F162
S32D00011F300C003B6C7A6C084904F02AFC07F10C0319467868FFF783FF00BF4837BD4680BD00007A44F4BF0100D0
S32D00011F58E8BF010080B584B000AFF860C7E90023D7E9000103F058F803461946F868FFF791FF00BF1037BD46D4
S32D00011F8080BD80B582B000AF78600B46FB70786800F039FA7B6859697B689A69FB78786800F0EAFB786800F0C5
S32D00011FA842FA00BF0837BD4680BD80B582B000AF78603960786800F022FA39687868FFF742FF786800F006FA95
S32D00011FD000BF0837BD4680BD80B582B000AF78600B46FB70786800F00EFAFB7819467868FFF7C7FF786800F0E4
S32D00011FF8F1F900BF0837BD4680BD000080B483B000AF78600B46FB704D4B1B684C4A23F0080313604B4B1B688D
S32D000120204A4A23F480231360484B1B68474A43F480331360454B1B68444A23F440731360414B1B68404A23F43E
S32D00012048435323F0300313603E4B1A68FB785B0203F400733B4913430B603A4B1A68FB785B101B0203F48073A4
S32D00012070364913430B60344B1A68FB789B101B0103F01003304913430B602F4B1A68FB78DB105B0103F02003BA
S32D000120982B4913430B602A4B1A68FB781B119B0103F04003264913430B60254B1A68FB785B11DB01DBB22249A7
S32D000120C013430B60204B1A68FB789B111B0303F480531D4913430B601B4B1A6897F90330DB115BB25B0303F41C
S32D000120E80053174913430B60164B1B68154A23F400331360134B1B68124A43F4003313600F4B1B680E4A43F0D3
S32D00012110080313600D4B1B680C4A43F440731360094B1B68084A43F4435343F030031360064B1B68054A43F46B
S32D000121388023136000BF0C37BD4680BC704700BF80F00F4040F00F4080B483B000AF78600B46FB70464B1B68AF
S32D00012160454A23F008031360444B1B68434A43F480331360414B1B68404A43F4802313603E4B1B683D4A23F4A4
S32D00012188407313603A4B1B68394A23F4435323F030031360374B1A68FB785B0203F40073344913430B60334B17
S32D000121B01A68FB785B101B0203F480732F4913430B602D4B1A68FB789B101B0103F01003294913430B60284B80
S32D000121D81A68FB78DB105B0103F02003244913430B60234B1A68FB781B119B0103F040031F4913430B601E4B65
S32D000122001A68FB785B11DB01DBB21B4913430B60194B1A68FB789B111B0303F48053164913430B60144B1A68D2
S32D0001222897F90330DB115BB25B0303F40053104913430B600F4B1B680E4A23F4003313600C4B1B680B4A43F4B1
S32D0001225000331360084B1B68074A43F008031360064B1B68054A23F48023136000BF0C37BD4680BC704700BFDA
S32D0001227880F00F4040F00F4080B586B000AF78607B6800225A617B6800229A617B681B6AFB60FB68FB72FB6851
S32D000122A01B0ABB72FB681B0CDBB203F003037B722A217868FFF7A6FE00217868FFF748FF00217868FFF744FF83
S32D000122C801217868FFF740FF3F217868FFF73CFF2B217868FFF792FE00217868FFF734FF00217868FFF730FF3D
S32D000122F000217868FFF72CFFEF217868FFF728FF2C217868FFF77EFE314B1B68304A23F4407313602F4B1B683E
S32D000123182E4A23F47F2323F0F00313602C4B1B682B4A23F01D031360274B1A687B681B6B254913430B60254BDB
S32D000123401A687B685B6B234913430B60224B1A687B689B6B204913430B601E4B1B681D4A23F0080313601A4BCB
S32D000123681B68194A43F48023136000237B617B69EF2B19D800233B613B69B3F5A07F0FD2114B1B68104A23F4CA
S32D00012390003313600E4B1B680D4A43F4003313603B6901333B61EBE77B6901337B61E2E7084B1B68074A43F00B
S32D000123B808031360044B1B68034A23F48023136000BF1837BD4680BD40F00F4080F00F40C0F00F4080B483B03A
S32D000123E000AF78607B689B69002B07DD7B685B695A1C7B685A617B6800229A6100BF0C37BD4680BC704780B569
S32D0001240882B000AF78607B685A697B685B689A4205DB7B6800225A617868FFF72DFF00BF0837BD4680BD80B5AF
S32D0001243082B000AF78607B689B695A1C7B689A617B689A697B689B689A4205D17868FFF7C5FF7868FFF7D7FFC5
S32D0001245800BF0837BD4680BD80B586B002AFF860B9607A600123009301237A68B968F86800F059F8F86800F0E1
S32D00012480D7FA00BF1037BD4680BD80B485B000AF786039607B681B68FB603B681A687B681A603B68FA681A60CB
S32D000124A800BF1437BD4680BC704780B586B002AFF860B9607A603B60BA683B681A447B68009313467A68B9680E
S32D000124D0F86800F0ABF8BA683B68D118BA683B68D0187A68BB691344009303467A68F86800F09CF8BA683B68CB
S32D000124F8D1187A68BB69D0187A68BB6913440093BB680246F86800F08DF87A68BB691A447B680093BB68B96890
S32D00012520F86800F083F800BF1037BD4680BD80B588B000AFF860B9607A603B60FB681B78022B03D0FB681B788D
S32D00012548032B11D17B68FB61BA6AFB691344013BBB61FB68DA68BB68D31A3B613B683A69D31A01337B610DE05D
S32D00012570BB68FB613A68FB691344013BBB617B687B61BA6A7B691344013B3B612A21F868FFF738FDFB691B0AB3
S32D00012598DBB203F00F03DBB21946F868FFF7D4FDFB69DBB21946F868FFF7CEFDBB691B0ADBB203F00F03DBB296
S32D000125C01946F868FFF7C4FDBB69DBB21946F868FFF7BEFD2B21F868FFF714FD7B691B0ADBB203F00F03DBB27A
S32D000125E81946F868FFF7B0FD7B69DBB21946F868FFF7AAFD3B691B0ADBB203F00F03DBB21946F868FFF7A0FD5B
S32D000126103B69DBB21946F868FFF79AFD2C21F868FFF7F0FC00BF2037BD4680BD90B58BB000AFF860B9607A60BF
S32D000126383B603A68BB68D31A1946F868FFF7F2FBF861BA6B7B68D31A1946F868FFF7EAFBB861BA69FB699A4220
S32D00012660CCBF01230023FB75FB7D002B0CD03A1D07F1080311461846FFF707FF3B4607F138011846FFF701FF79
S32D00012688BA683B689A420CDD3A4607F1080311461846FFF7F6FE3B1D07F138011846FFF7F0FE3A68BB689A420B
S32D000126B006D1BB687A681946F868FFF7D1FE55E0BA6B7B68D31A184602F0B4FD04463A68BB68D31A184602F024
S32D000126D8ADFD03461946204602F0B0FE03463B617B68184602F0A2FD03467B62BB683B623B683A6A9A4235DCAA
S32D00012700FB7D002B14D0786A02F050F94FF00002184B01F0EDFF02460B461046194602F037FC03463A6A1946C6
S32D00012728F868FFF799FE13E0786A02F03BF94FF000020E4B01F0D8FF02460B461046194602F022FC03461A4631
S32D00012750396AF868FFF784FE3969786A02F0B6FC03467B623B6A01333B62C5E72C37BD4690BD00BF0000E03FDE
S32D0001277880B584B000AFF860B9607A60FB707A6813465B0013449B00991CBA6813461B011344DA1CFB78F86870
S32D000127A000F004F800BF1037BD4680BD80B58EB002AFF860B9607A60FB70FB780A2B06D1F868FFF720FEF868AB
S32D000127C8FFF708FEF2E0FB787D2B02D8FB781F2B01D82023FB70FB78203BFB70112300930C237A68B968F86849
S32D000127F0FFF79DFEFA7813469B0013446F4AD35C3B75FA7813469B00134401336B4AD35C7B75FA7813469B00A9
S32D0001281813440233674AD35CBB75FA7813469B0013440333634AD35CFB75FA7813469B00134404335F4AD35CEA
S32D000128403B760023BB62BB6A062B00F3A180F86800F050F9F86800F0B3F8002387F82F3000237B627B6A042B65
S32D0001286835DC07F114027B6A13441B7803F00103002B14BF01230023FB76FB7E002B11D097F82F3083F00103BC
S32D00012890DBB2002B03D0F86800F0CAF802E0F86800F08EF8F86800F08BF80DE097F82F30002B03D0F86800F0C8
S32D000128B81DF902E0F86800F07FF8F86800F07CF8FB7E87F82F307B6A01337B62C6E797F82F30002B03D0F86828
S32D000128E000F008F902E0F86800F06AF8F86800F067F8002387F82F3000233B623B6A042B42DC07F114023B6A2F
S32D0001290813441B7803F00103002B14BF01230023BB76BB7E002B11D097F82F3083F00103DBB2002B03D0F868B4
S32D0001293000F07EF802E0F86800F042F8F86800F03FF80DE097F82F30002B03D0F86800F0D1F802E0F86800F0FB
