S01100002E2E2F50726F746575732E73313966
S32D0000C000000000205DC2000011C3000017C300001DC3000023C3000029C3000000000000000000000000000073
S32D0000C028000000002FC3000035C30000000000003BC3000041C3000099DE0000A5DE0000B1DE0000BDDE0000DA
S32D0000C050C9DE0000D5DE0000E1DE0000EDDE0000F9DE000005DF000011DF00001DDF000029DF000035DF00001B
S32D0000C07841DF00004DDF000059DF000065DF000071DF00007DDF000089DF000095DF0000A1DF0000ADDF00003E
S32D0000C0A0B9DF0000C5DF0000D1DF0000DDDF0000E9DF0000F5DF000001E000000DE0000019E0000025E0000062
S32D0000C0C831E000003DE0000049E0000055E0000061E000006DE0000079E0000085E0000091E000009DE0000084
S32D0000C0F0A9E00000ED350100B5E00000C1E00000CDE00000D9E00000E5E00000F1E00000FDE0000009E100007D
S32D0000C11815E1000021E100002DE1000039E1000045E1000051E100005DE1000069E1000075E1000081E1000041
S32D0000C1408DE1000099E10000A5E10000B1E10000090D0100BDE10000C9E10000D5E10000E1E10000EDE100002C
S32D0000C168F9E1000005E2000011E200001DE2000029E2000035E2000041E200004DE2000059E2000065E2000000
S32D0000C19071E200007DE2000089E2000001090100C9070100650801001DDC0000A109010095E20000A1E200007C
S32D0000C1B8ADE200008CD8010000000020C81600008CD801000000FF1F00000000C8160020940400000000FF1F30
S32D0000C1E00000000080B489B000AFF860B9607A60BB68FB61FB68BB6100237B617A697B689A420BD2BA69131DFB
S32D0000C208BB61FB69191DF96112681A607B6904337B61EFE700BF2437BD4680BC704780B485B000AF786039609E
S32D0000C2307B68FB600023BB60BA683B689A4208D2FB681A1DFA6000221A60BB680433BB60F2E700BF1437BD46FE
S32D0000C25880BC704780B586B000AF72B6234B4CF220521A80214B4DF628121A80204B4FF4E9721A801F4B7B615F
S32D0000C2807B691F4A934214D27B691A1D7A611B683B617B691A1D7A611B68FB607B691A1D7A611B68BB60BA68E9
S32D0000C2A8F9683869FFF79AFFE6E77B69134A93420ED27B691A1D7A611B68FB607B691A1D7A611B68BB60B9688B
S32D0000C2D0F868FFF7A8FFECE70B4B7B600B4A7B681A600AF0D3FB62B601F060FD00F0C8F8FEE700BF0E20054098
S32D0000C2F800200540BCC10000D4C10000E4C1000008ED00E000C0000080B400AFFEE780B400AFFEE780B400AFF4
S32D0000C320FEE780B400AFFEE780B400AFFEE780B400AFFEE780B400AFFEE780B400AFFEE780B400AFFEE780B426
S32D0000C34800AFFEE7FFFFFFFFFFFFFFFFFFFFFFFFFFFFFFFFFFFFFFFFFFFFFFFFFFFFFFFFFFFFFFFFFFFFFFFF57
S32D0000C370FFFFFFFFFFFFFFFFFFFFFFFFFFFFFFFFFFFFFFFFFFFFFFFFFFFFFFFFFFFFFFFFFFFFFFFFFFFFFFFFC7
S32D0000C398FFFFFFFFFFFFFFFFFFFFFFFFFFFFFFFFFFFFFFFFFFFFFFFFFFFFFFFFFFFFFFFFFFFFFFFFFFFFFFFF9F
S32D0000C3C0FFFFFFFFFFFFFFFFFFFFFFFFFFFFFFFFFFFFFFFFFFFFFFFFFFFFFFFFFFFFFFFFFFFFFFFFFFFFFFFF77
S32D0000C3E8FFFFFFFFFFFFFFFFFFFFFFFFFFFFFFFFFFFFFFFFFFFFFFFFFFFFFFFFFFFFFFFFFFFFFFFFFEFFFFFF50
S32D0000C44010B5054C237833B9044B13B10448AFF300800123237010BDC81600200000000010C4000008B5034B4F
S32D0000C4681BB103490348AFF3008008BD00000000CC16002010C4000080B500AF4FF47A71174804F007FE40F6E6
S32D0000C4901B01154804F01FFE1449134804F038FE134807F0A9FC0EA1D1E9000103F046FE232000F021F82320EB
S32D0000C4B800F09EF8232000F01BF9232000F070FA232000F031FB232000F06AFB232000F02BFC0023184680BDDD
S32D0000C4E0333333333333D33F14170020000034436C1A00200000000080B58CB002AF78602D237B6234A3D3E9C8
S32D0000C5080023C7E9062305237B615A233B610423FB60232000F098FC2FA1D1E9000103F009FE012300934FF028
S32D0000C53000022F4B786801F017F929A1D1E9000103F0FCFD7B685B424FF487720221184600F002FF22A1D1E964
S32D0000C558000103F0EFFD786909F066FA02460B46786800F0E1FC1CA1D1E9000103F0E2FDD7E90623786A00F050
S32D0000C5804BFC386909F054FA02460B46786801F017FA13A1D1E9000103F0D0FDF86809F047FA02460B467868A1
S32D0000C5A800F0C2FC0CA1D1E9000103F0C3FD7A6A1346DB079B1A5B00194609A3D3E90023084600F025FC00BF65
S32D0000C5D02837BD4680BD00BF9A9999999999E93F9A9999999999C93F333333333333D33F008056400000000027
S32D0000C5F880B58EB000AF786005237B6308233B635A23FB620523BB625A237B6201233B625A23FB611923BB61E1
S32D0000C6205A237B610A233B612D23FB60786B09F0FFF902460B46786800F076FD26A1D1E9000103F07BFD4FF043
S32D0000C6480002274B786800F0BFFF21A1D1E9000103F070FD386B09F0E7F902460B46786800F062FC1AA1D1E92D
S32D0000C670000103F063FD4FF000021B4B786801F09FF915A1D1E9000103F058FD7B685B4200220321184600F06B
S32D0000C6985FFE0FA1D1E9000103F04CFD786800F027FE0BA1D1E9000103F044FD00F040FE0C490D4804F028FDEF
S32D0000C6C007A1D1E9000103F039FD00BF3837BD4680BD00BFAFF300809A9999999999C93F9A9999999999D93F23
S32D0000C6E800805640000034421417002000000000B0B58EB000AF78600A237B639A4B3B639A4BFB629A4BBB6251
S32D0000C7109A4B7B62786B09F08BF902460B46786800F006FC964807F0DDFD3862944807F0BDFD03461946B86ACE
S32D0000C73809F032FD0346FB618F4807F0C1FD03461946786A09F028FD0346BB61B969F86A09F020FD03461C4628
S32D0000C760396BF86909F01AFD03461946204609F0D3FE0346184609F06DF902460B461046194607F019FF4FF01C
S32D0000C78800027E4B09F0BAF902460B46104619466FA3D3E9002309F0DBFA02460B461046194609F05BFC034618
S32D0000C7B07B61754805F0CBF8786909F0A5FD0346396A184609F0ECFC034619466E4805F0B1FA6E496C4805F005
S32D0000C7D886FA396A6A4805F0A9FAB969F86A09F0D9FC0346184609F031F94FF000024FF0804308F077F80446B6
S32D0000C8000D46396BF86909F0C9FC0346184609F021F94FF000024FF0804308F067F802460B462046294608F03A
S32D0000C828B7FF02460B46104619464FF00002564B08F058F802460B461046194609F00EFC03463B6144A1D1E9DF
S32D0000C850000103F073FC7B69C3F15503184609F0E7F802460B46786800F0B2FE3CA1D1E9000103F063FC3B698A
S32D0000C8780333184609F0D8F802460B46786800F053FB4FF00000404903F054FC3F4804F003F90346184609F05C
S32D0000C8A0D9F802460B46C7E902233B4B01221A604FF00002394BD7E9020109F09FFB0346002B08D04FF47F01DE
S32D0000C8C82F4805F05FF8324B01221A6018E024A3D3E90023D7E9020109F08CFB0346002B07D0FF21264805F0B6
S32D0000C8F04DF8294B00221A6006E02949224805F045F8254B01221A601F4805F020F8D7E902231D4805F06EFAA9
S32D0000C91811A1D1E9000103F00DFC174807F0DEFC03461E49184609F035FC0346184609F08DF802460B46786882
S32D0000C94001F03EF806A1D1E9000103F0F7FB00BF3837BD46B0BD00BF6E861BF0F92109409A9999999999C93FFD
S32D0000C9689A9999999999E93FA470114133335542000060400000A0406C1A002000806640041A002094CD010093
S32D0000C9900000E03F04170020201700200000D03F00FFFF000000344380B58AB000AF78600A237B625A233B622A
S32D0000C9B80623FB615A23BB6109237B615A233B610F23FB60786A09F02FF802460B46786800F0A6FB4EA1D1E9D0
S32D0000C9E0000103F0ABFB386A09F022F802460B46786800F0E5FF48A1D1E9000103F09EFB7B685B425A2202213E
S32D0000CA08184600F0A5FC42A1D1E9000103F092FB4FF00002404B786800F086FA3CA1D1E9000103F087FB3D4B42
S32D0000CA301B68002B1AD1F86908F0FAFF02460B46786800F075FA34A1D1E9000103F076FBB86908F0EDFF0246D4
S32D0000CA580B46786800F0B8FD2DA1D1E9000103F069FB1DE02D4B1B68012B19D1786908F0DBFF02460B467868C0
S32D0000CA8000F056FA24A1D1E9000103F057FB386908F0CEFF02460B46786800F099FD1EA1D1E9000103F04AFB6C
S32D0000CAA87B685B42184600F023FC4FF000001C4903F040FBF86808F0B7FF02460B46786800F02EFB12A1D1E994
S32D0000CAD0000103F033FB4FF00002144B786800F06FFF0DA1D1E9000103F028FB4FF000020D4B786800F018FB3D
S32D0000CAF87B685B425A220221184600F029FC04A1D1E9000103F016FB00BF2837BD4680BD9A9999999999C93F1D
S32D0000CB200000104020170020000008400080564080B586B000AF786001237B615A233B611D23FB60786908F063
S32D0000CB4873FF02460B46786800F0EEF912A1D1E9000103F0EFFA386908F066FF02460B46786800F031FD0CA171
S32D0000CB70D1E9000103F0E2FAF86808F059FF02460B46786800F0D0FA05A1D1E9000103F0D5FA00BF1837BD46F6
S32D0000CB9880BD00BFAFF300809A9999999999C93F80B58AB000AF78604FF000025A4B786800F00AFD54A1D1E950
S32D0000CBC0000103F0BBFA574807F036FB78622D233B6251A3D3E90023C7E9062302237B6106233B610A23FB6016
S32D0000CBE87B6A022B13D14FF000024D4B786800F0EBFC4FF000024FF08043786800F094F94FF00002464B786847
S32D0000CC1000F0D6FE2EE07B6A012B14D14FF00002414B786800F0D4FC386908F001FF02460B46786800F07CF94A
S32D0000CC384FF000023A4B786800F0BEFE16E07B6A002B13D14FF00002354B786800F0BCFCF86808F0E9FE0246C2
S32D0000CC600B46786800F064F94FF000022E4B786800F0A6FE786908F0DBFE02460B46786800F056F922A1D1E913
S32D0000CC88000103F057FAD7E90623386A00F0C0F83B6A5942D7E90623084600F0B9F8786908F0C2FE02460B46BC
S32D0000CCB0786800F039FA4FF000001C4903F03EFAD7E90623386A00F0A7F8786908F0B0FE02460B46786800F07A
S32D0000CCD82BF90DA1D1E9000103F02CFA3B6A5942D7E90623084600F093F8786908F09CFE02460B46786800F0BA
S32D0000CD0013FA00BF2837BD4680BD00BFAFF300809A9999999999C93F333333333333E33F008066406C1A0020FA
S32D0000CD28008056400000144080B584B000AF78602FA1D1E9000103F0FDF92F4807F078FAF8604FF000022D4B1E
S32D0000CD50786800F035FE28A1D1E9000103F0EEF9FB68022B0DD14FF00002274B786800F0DBF94FF000024FF00F
S32D0000CD788043786800F028FC12E0FB68012B06D14FF000021F4B786800F0CAF908E0FB68002B05D14FF00002B3
S32D0000CDA01B4B786800F0C0F913A1D1E9000103F0C5F94FF000024FF08043786800F0B4F90DA1D1E9000103F03A
S32D0000CDC8B9F94FF00002114B786800F0F5FD08A1D1E9000103F0AEF97B685B00184600F087FA00BF1037BD4618
S32D0000CDF080BD00BFAFF300809A9999999999C93F6C1A002000805640000028400000204000001040008046407E
S32D0000CE1880B584B000AFF860C7E90023F86809F06FFA03461946074801F0C2FAD7E9000103F080F9034801F0DA
S32D0000CE4079FA00BF1037BD4680BD00BFFC16002090B58BB000AF78604FF000022E4BC7E908234FF000022D4BC5
S32D0000CE68C7E906232C4803F017FE0346012214464FF07A51184609F053FC0346002B01D100231C46E3B2002B46
S32D0000CE9000D0EBE7234807F025FA0346184608F0D9FD02460B46C7E90423D7E904231E4804F0A0FFD7E90823A1
S32D0000CEB8786800F039F814A1D1E9000103F03AF94FF00002174BC7E90223D7E90423D7E9020108F05BFC0246FC
S32D0000CEE00B46786800F074FB09A1D1E9000103F025F9D7E90623786800F01AF804A1D1E9000103F01BF900BF2D
S32D0000CF082C37BD4690BD00BF333333333333C33F0000084000004140041700206C1A0020041A00200080664047
S32D0000CF30F0B587B000AFF860C7E9002360A3D3E90023D7E9000108F007FF02460B46104619465DA3D3E900234F
S32D0000CF5808F0D4FD02460B461046194609F07EF803467B61786908F05FFD57A3D3E9002308F0C4FD02460B46A0
S32D0000CF801046194609F06EF803463B61544803F065FD544803F062FDF86809F0B5F903461946514801F008FA70
S32D0000CFA8F86809F0ADF9034619464E4801F000FA4A4803F03DFD0446474803F039FD03462344184608F030FD3F
S32D0000CFD04FF000024FF0804308F0BEFE02460B4614461D463B695B00184608F021FD02460B4601210E462046FE
S32D0000CFF8294608F0F5FF0346002B01D100231E46F3B2002B00D0D3E7F86808F00DFD30A3D3E9002308F072FD0E
S32D0000D02002460B461046194609F064F8034619462D4801F0C1F9F86808F0FAFC26A3D3E9002308F05FFD0246E5
S32D0000D0480B461046194609F051F803461946254801F0AEF9214803F0EBFC04461E4803F0E7FC034623441846EE
S32D0000D07008F0DEFC4FF000024FF0804308F06CFE02460B4614461D467B695B00184608F0CFFC02460B460121AA
S32D0000D0980E462046294608F0A3FF0346002B01D100231E46F3B2002B00D0D3E700F040F900BF1C37BD46F0BD95
S32D0000D0C0D34D621058D932400000000000E07340CDCCCCCCCCCCEC3F9A9999999999E93FE4160020E81600208F
S32D0000D0E8EC160020F416002080B582B000AF7860786809F005F903461946074801F058F9786809F0FDF80346B9
S32D0000D1101946044801F050F900BF0837BD4680BDF4160020EC160020F0B587B000AFF860C7E9002364A3D3E909
S32D0000D1380023D7E9000108F00BFE02460B461046194661A3D3E9002308F0D8FC02460B461046194608F082FF20
S32D0000D16003467B61786908F063FC5BA3D3E9002308F0C8FC02460B461046194608F072FF03463B61584803F07C
S32D0000D18869FC584803F066FCFB685B42184609F0B7F803461946544801F00AF9FB685B42184609F0ADF803469C
S32D0000D1B01946504801F000F94C4803F03DFC0446494803F039FC03462344184608F030FC4FF000024FF0804338
S32D0000D1D808F0BEFD02460B4614461D463B695B00184608F021FC02460B4601210E462046294608F0F5FE034696
S32D0000D200002B01D100231E46F3B2002B00D0D3E7FB685B42184608F00BFC31A3D3E9002308F070FC02460B4615
S32D0000D2281046194608F062FF034619462E4801F0BFF8FB685B42184608F0F6FB26A3D3E9002308F05BFC02467E
S32D0000D2500B461046194608F04DFF03461946254801F0AAF8214803F0E7FB04461E4803F0E3FB034623441846F1
S32D0000D27808F0DAFB4FF000024FF0804308F068FD02460B4614461D467B695B00184608F0CBFB02460B460121AF
S32D0000D2A00E462046294608F09FFE0346002B01D100231E46F3B2002B00D0D3E700F03CF800BF1C37BD46F0BD95
S32D0000D2C8D34D621058D932400000000000E07340333333333333EB3F666666666666E63FE4160020E816002053
S32D0000D2F0EC160020F416002080B582B000AF78607B685B42184608F0FFFF03461946084801F052F87B685B424F
S32D0000D318184608F0F5FF03461946044801F048F800BF0837BD4680BDEC160020F416002080B500AF034800F0CF
S32D0000D340F9FF034800F0F6FF00BF80BDEC160020F416002000000000B0B588B000AFF860B9607A60FB68002B2A
S32D0000D36805DAFB685B421846FFF7C2FF02E0F868FFF7BAFE0023FB7602F002FF02460B461046194608F0B2FE36
S32D0000D3900346FB61BB68012B07D1854803F01AF80346002B00F0ED80F7E7BB68022B40F0D380804803F00EF88E
S32D0000D3B80346002B05D17E4803F008F80346002B01D0012300E00023002B00F0D68002F0D7FE04460D46F869A2
S32D0000D3E008F038FB02460B462046294608F0D2F902460B461046194601231C464FF000026E4B08F00FFE0346A7
S32D0000D408002B01D100231C46E3B2002B00F09A80FFF78EFFFB68002B03DAF868FFF768FF04E0FB685B421846BD
S32D0000D430FFF75EFE58A1D1E9000102F07FFE02F0A3FE02460B461046194608F053FE0346FB615B4806F046FFAC
S32D0000D45878617969594804F069FC7B68B32B30DC786808F04DFF03461946786909F03AF90346002B12D0FB6892
S32D0000D4805B42184608F040FF034619464E4800F093FFF86808F038FF034619464B4800F08BFF42E0F86808F0CE
S32D0000D4A82FFF03461946464800F082FFFB685B42184608F025FF03461946424800F078FF2FE0786808F01CFF6C
S32D0000D4D003461946786909F009F90346002B12D0FB685B42184608F00FFF03461946364800F062FFF86808F021
S32D0000D4F807FF03461946334800F05AFF11E0F86808F0FEFE034619462D4800F051FFFB685B42184608F0F4FEAA
S32D0000D52003461946294800F047FF1DA1D1E9000102F004FEFB68002B05DAFB685B421846FFF7DAFE02E0F86846
S32D0000D548FFF7D2FD16A1D1E9000102F0F3FD2CE7BB68032B11D1154802F038FF0346002B07D0134802F032FF07
S32D0000D5700346002B01D0012300E00023002B00D0EDE709A1D1E9000102F0D8FDFFF7D4FE00BF2037BD46B0BDD8
S32D0000D598333333333333C33F7B14AE47E17AB43F9A9999999999B93F081700200C170020101700200000F03FD8
S32D0000D5C06C1A0020041A0020EC160020F4160020B0B58AB000AFF860C7E900234FF000025B4BD7E9000108F0F4
S32D0000D5E88DFA02460B46104619464DA3D3E9002308F084FA02460B46104619464AA3D3E9002308F07BFA02462C
S32D0000D6100B461046194648A3D3E9002308F09CFB02460B461046194608F01CFD03467B6243A3D3E90023C7E993
S32D0000D6380623786A08F0F8F941A3D3E9002308F05DFA02460B461046194608F007FD03467B613E4803F0FEF9DF
S32D0000D6603D4803F0FBF9F86808F04EFE034619463A4800F0A1FEFB685B42184608F044FE03461946364800F025
S32D0000D68897FE324803F0D4F902467B695B009A42B4BF01230023DBB2002B00D0F1E7F86808F0C2F9D7E906232C
S32D0000D6B008F028FA02460B461046194608F01AFD03461946254800F077FEF86808F0B0F9D7E9062308F016FA69
S32D0000D6D802460B46144683F000452046294608F005FD034619461C4800F062FE174803F09FF902467B6A5B00DC
S32D0000D7009A42B4BF01230023DBB2002B00D0F1E7124800F00FFE124800F00CFE00BF2837BD46B0BDAFF30080AA
S32D0000D72870E20DA545DF913F0000000000E07340D34D621058D93240666666666666E63F9A9999999999E93FCB
S32D0000D75000800E40E4160020E8160020EC160020F4160020000000002DE9F0438BB000AFF860C7E900234FF0BC
S32D0000D77800028B4BD7E9000108F0C0F902460B46104619467AA3D3E9002308F0B7F902460B461046194678A3DE
S32D0000D7A0D3E9002308F0AEF902460B461046194675A3D3E9002308F0CFFA02460B461046194608F04FFC0346FD
S32D0000D7C8FB6171A3D3E90023C7E90423F86908F02BF96FA3D3E9002308F090F902460B461046194608F03AFCA2
S32D0000D7F003467B626D4803F031F96D4803F02EF9F86808F081FD034619466A4800F0D4FDFB685B42184608F0FD
S32D0000D81877FD03461946664800F0CAFD02F0B0FC02460B461046194608F060FC03463B625C4803F0FDF8024667
S32D0000D8407B6A5B009A42B4BF01230023DBB2002B4FD002F099FC80468946386A08F0FAF802460B4640464946B7
S32D0000D86807F094FF02460B461046194601231E464FF000024FF0804308F0D0FB0346002B01D100231E46F3B2BA
S32D0000D890002BD1D0FB68BA6C02FB03F14FF00002464B0846FFF744FB7B6A10337B623CA1D1E9000102F042FC02
S32D0000D8B8F86808F025FD034619463C4800F078FDFB685B42184608F01BFD03461946384800F06EFD02F054FC04
S32D0000D8E002460B461046194608F004FC03463B62A2E7F86808F09CF8D7E9042308F002F902460B461046194651
S32D0000D90808F0F4FB03461946284800F051FDF86808F08AF8D7E9042308F0F0F802460B46144683F00045204602
S32D0000D930294608F0DFFB034619461F4800F03CFD1A4803F079F80246FB695B009A42B4BF01230023DBB2002B35
S32D0000D95800D0F1E7154800F0E9FC154800F0E6FC00BF2C37BD46BDE8F08300BFAFF3008070E20DA545DF913F82
S32D0000D9800000000000E07340D34D621058D93240666666666666E63F9A9999999999E93F9A9999999999B93FDA
S32D0000D9A800800E40E4160020E8160020EC160020F41600200000F03FB0B58AB000AFF860C7E900234FF0000216
S32D0000D9D05F4BD7E9000108F095F802460B461046194651A3D3E9002308F08CF802460B46104619464EA3D3E9A1
S32D0000D9F8002308F083F802460B46104619464CA3D3E9002308F0A4F902460B461046194608F024FB03467B622F
S32D0000DA2047A3D3E90023C7E90623786A08F000F845A3D3E9002308F065F802460B461046194608F00FFB0346AF
S32D0000DA487B61424803F006F8414803F003F8FB685B42184608F054FC034619463D4800F0A7FCF86808F04CFCDC
S32D0000DA70034619463A4800F09FFC02F085FB02460B461046194608F035FB03463B61314802F0D2FF02467B699E
S32D0000DA985B009A42B4BF01230023DBB2002B00D0F1E7F86807F0C0FFD7E9062308F026F802460B46144683F094
S32D0000DAC000452046294608F015FB03461946234800F072FCF86807F0ABFFD7E9062308F011F802460B461046CB
S32D0000DAE8194608F003FB034619461B4800F060FC164802F09DFF02467B6A5B009A42B4BF01230023DBB2002BA2
S32D0000DB1000D0F1E7114800F00DFC114800F00AFC00BF2837BD46B0BD70E20DA545DF913F0000000000E0734085
S32D0000DB38D34D621058D93240666666666666E63F9A9999999999E93F00800E40E4160020E8160020EC1600201A
S32D0000DB60F416002080B582B000AF786039607B68012B2FD13B684FF6FF7293422AD10121164802F0ABFC002174
S32D0000DB88154802F0A7FC154A0121154800F090FB124A0321134800F08BFB134A0221134800F086FB0821124804
S32D0000DBB002F066FF1821114802F030FB0F21104802F02CFB0E210F4802F028FB00210E4803F048FA00BF08375B
S32D0000DBD8BD4680BDE4160020E816002000001041EC160020F41600206666E640FC16002004170020081700206C
S32D0000DC000C170020101700201417002080B500AF4FF6FF710120FFF7A5FF80BD80B500AF0F4BD3F8A03003F4C0
S32D0000DC288053002B14BF01230023DBB2002B10D0094BD3F8A030084A23F48053C2F8A030064806F02DFC064BAB
S32D0000DC501B68054A23F40053136000BF80BD00BF00C004408C1A0020C0F00F4080B400AF124B4FF480725A6341
S32D0000DC78114B5B69104A43F4005353610E4B1B680D4A43F4005313600A4B0C4A1A630C4BD3F888310A4A43F00C
S32D0000DCA08063C2F88831084B9B68074A43F08063936000BFBD4680BC704700BF00C00440C0F00F4003010A00CB
S32D0000DCC800E100E080B400AF334B00225A70324B98221A70304B9B79DBB203F01003002B14BF01230023DBB26B
S32D0000DCF0002B00D0F2E72A4B9B79DBB29B08DBB203F00303022B14BF01230023DBB2002B00D0F0E7224B1822A6
S32D0000DD181A71214B00225A71204B03F580531A461F4B53641C4B54225A711B4B9B79DBB203F02003002B0CBF87
S32D0000DD4001230023DBB2002B00D0F2E7144B9B79DBB203F04003002B0CBF01230023DBB2002B00D0F2E70E4BE0
S32D0000DD681B78DBB20C4A03F03F03DBB213700A4B9B79DBB29B08DBB203F00303032B14BF01230023DBB2002BB3
S32D0000DD9000D0F0E700231846BD4680BC704700BF00400640007004400000130180B500AF314B03F580539B6B09
S32D0000DDB82F4A43F4785302F580529363FFF752FFFFF780FF2B4B58221A602A4B1B684FF47A7202FB03F3284A51
S32D0000DDE01360274B1B681A46234B03F580535B6C1B0E03F00F030133B2FBF3F31A46214B1A601D4B03F58053DF
S32D0000DE08DB6B1B4A43F0225302F58052D363184B03F580531B6B164A43F0006302F580521363174B4FF480721A
S32D0000DE301A61642002F058F8134B5B69124A23F010035361104B00221A600F4B10225A610E4803F009FC02F0AD
S32D0000DE580BFF02F069FF0C4802F0A4F80B4806F073FB4FF4FA6002F04FF900BF80BD00BF0070044050190020D0
S32D0000DE804C1900205419002000D00340041A002048190020FC1A002080B500AFFEF753FA00BF80BD80B500AF54
S32D0000DEA8FEF74DFA00BF80BD80B500AFFEF747FA00BF80BD80B500AFFEF741FA00BF80BD80B500AFFEF73BFAE0
S32D0000DED000BF80BD80B500AFFEF735FA00BF80BD80B500AFFEF72FFA00BF80BD80B500AFFEF729FA00BF80BD2E
S32D0000DEF880B500AFFEF723FA00BF80BD80B500AFFEF71DFA00BF80BD80B500AFFEF717FA00BF80BD80B500AF54
S32D0000DF20FEF711FA00BF80BD80B500AFFEF70BFA00BF80BD80B500AFFEF705FA00BF80BD80B500AFFEF7FFF958
S32D0000DF4800BF80BD80B500AFFEF7F9F900BF80BD80B500AFFEF7F3F900BF80BD80B500AFFEF7EDF900BF80BD6C
S32D0000DF7080B500AFFEF7E7F900BF80BD80B500AFFEF7E1F900BF80BD80B500AFFEF7DBF900BF80BD80B500AF92
S32D0000DF98FEF7D5F900BF80BD80B500AFFEF7CFF900BF80BD80B500AFFEF7C9F900BF80BD80B500AFFEF7C3F9D3
S32D0000DFC000BF80BD80B500AFFEF7BDF900BF80BD80B500AFFEF7B7F900BF80BD80B500AFFEF7B1F900BF80BDA8
S32D0000DFE880B500AFFEF7ABF900BF80BD80B500AFFEF7A5F900BF80BD80B500AFFEF79FF900BF80BD80B500AFCE
S32D0000E010FEF799F900BF80BD80B500AFFEF793F900BF80BD80B500AFFEF78DF900BF80BD80B500AFFEF787F94A
S32D0000E03800BF80BD80B500AFFEF781F900BF80BD80B500AFFEF77BF900BF80BD80B500AFFEF775F900BF80BDE3
S32D0000E06080B500AFFEF76FF900BF80BD80B500AFFEF769F900BF80BD80B500AFFEF763F900BF80BD80B500AF09
S32D0000E088FEF75DF900BF80BD80B500AFFEF757F900BF80BD80B500AFFEF751F900BF80BD80B500AFFEF74BF9C2
S32D0000E0B000BF80BD80B500AFFEF745F900BF80BD80B500AFFEF73FF900BF80BD80B500AFFEF739F900BF80BD1F
S32D0000E0D880B500AFFEF733F900BF80BD80B500AFFEF72DF900BF80BD80B500AFFEF727F900BF80BD80B500AF45
S32D0000E100FEF721F900BF80BD80B500AFFEF71BF900BF80BD80B500AFFEF715F900BF80BD80B500AFFEF70FF939
S32D0000E12800BF80BD80B500AFFEF709F900BF80BD80B500AFFEF703F900BF80BD80B500AFFEF7FDF800BF80BD5B
S32D0000E15080B500AFFEF7F7F800BF80BD80B500AFFEF7F1F800BF80BD80B500AFFEF7EBF800BF80BD80B500AF83
S32D0000E178FEF7E5F800BF80BD80B500AFFEF7DFF800BF80BD80B500AFFEF7D9F800BF80BD80B500AFFEF7D3F8B5
S32D0000E1A000BF80BD80B500AFFEF7CDF800BF80BD80B500AFFEF7C7F800BF80BD80B500AFFEF7C1F800BF80BD99
S32D0000E1C880B500AFFEF7BBF800BF80BD80B500AFFEF7B5F800BF80BD80B500AFFEF7AFF800BF80BD80B500AFBF
S32D0000E1F0FEF7A9F800BF80BD80B500AFFEF7A3F800BF80BD80B500AFFEF79DF800BF80BD80B500AFFEF797F82D
S32D0000E21800BF80BD80B500AFFEF791F800BF80BD80B500AFFEF78BF800BF80BD80B500AFFEF785F800BF80BDD4
S32D0000E24080B500AFFEF77FF800BF80BD80B500AFFEF779F800BF80BD80B500AFFEF773F800BF80BD80B500AFFA
S32D0000E268FEF76DF800BF80BD80B500AFFEF767F800BF80BD80B500AFFEF761F800BF80BD80B500AFFEF75BF8A4
S32D0000E29000BF80BD80B500AFFEF755F800BF80BD80B500AFFEF74FF800BF80BD80B500AFFEF749F800BF80BD10
S32D0000E2B880B584B000AFF8600B467A60FB72FB68FA7A1A71FB6800225A711749786808F027FA0346002B02D0DF
S32D0000E2E0134B7B600AE04FF07E51786808F008FA0346002B02D04FF07E537B60786807F0A9FB09A3D3E90023CE
S32D0000E30807F0FCFB02460B461046194607F0EEFE0246FB681A60FB6818461037BD4680BDABAAAAAAAAAA2040FE
S32D0000E3300000404180B582B000AF78607B685B79002B09D07B6800225A717B6819791E230022034801F064FE4F
S32D0000E35800BF0837BD4680BD4819002080B584B000AF786039603B687F2B02DD7F23FB7308E03B6813F1800FF5
S32D0000E38002DA8023FB7301E03B68FB737B685B79FA7B9A4209D07B68FA7B5A717B681979FA7B1E23034801F025
S32D0000E3A83BFE00BF1037BD4680BD00BF48190020B0B584B000AF786039603749386808F091F90346002B02D0E7
S32D0000E3D0334B3B6008E03349386808F0A5F90346002B01D02F4B3B60386807F033FB04460D467B681B681846EC
S32D0000E3F807F02CFB4FF00002294B07F0A9FC02460B462046294607F079FB02460B461046194607F06BFE0346B8
S32D0000E4203B604FF00001386808F074F90346002B10D0386807F00EFB17A3D3E9002307F061FB02460B4610461F
S32D0000E448194607F00BFE0346FB6018E0386807F0FDFA4FF00002134B07F050FB02460B46104619464FF00002AD
S32D0000E4700D4B07F071FC02460B461046194607F0F1FD0346FB60F9687868FFF76BFF00BF1037BD46B0BD00BF15
S32D0000E49852B81E85EB51F43F0000C8C20000C842000059400000604080B483B000AF03460A46FB711346BB71CD
S32D0000E4C0BB79002B03D1134B00221A7002E0114B01221A703823FB710E4B1A78FB791343FB710D4B9B78DBB226
S32D0000E4E80B4A43F01003DBB29370094B9B78DBB2074A43F02003DBB29370054AFB79137100BF0C37BD4680BC28
S32D0000E510704700BF241700200060064080B483B000AF01237B607B68312B04DC00BF7B6801337B60F7E700BFE4
S32D0000E5380C37BD4680BC704780B582B000AF03460A46FB711346BB71134B1B7800211846FFF7AAFF00F024F8C1
S32D0000E560104AFB79137100F01FF80E4ABB79137100F01AF80B4B9B78DBB20A4A23F02003DBB29370074B9B78AD
S32D0000E588DBB2064A23F01003DBB29370FFF7C2FF00BF0837BD4680BD251700200060064080B483B000AF174B63
S32D0000E5B01B78002B24D100237B60154BDB78DBB203F00203002B0CBF01230023DBB2002B0DD07B6842F21072E9
S32D0000E5D8934203DD0B4B01221A7004E07B6801337B6000BFE5E7084BDB78DBB2064A43F00203DBB2D37000E091
S32D0000E60000BF0C37BD4680BC704700BF261700200060064080B582B000AF0346FB71FB79184600F05FF800BF8F
S32D0000E6280837BD4680BD80B582B000AF03460A46FB711346BB7100F035F8FB795B00DBB21846FFF7E3FFBB79C2
S32D0000E6501846FFF7DFFF00F037F800BF0837BD4680BD80B500AFFF2000F03CF80346184680BD80B584B000AFEA
S32D0000E6780346FB7100F016F8FB795B005BB243F001035BB2DBB21846FFF7C0FFFFF7E5FF0346FB7300F014F874
S32D0000E6A0FB7B18461037BD4680BD000080B400AF044B9B68034A43F48013936000BFBD4680BC704740F00F407E
S32D0000E6C880B400AF044B5B68034A43F48013536000BFBD4680BC704740F00F4080B485B000AF0346FB71002341
S32D0000E6F0BB73164BDB6A03F00043012B0CBF01230023DBB2002B03D0FB7B0133FB73F0E70E4BDB6A0D4A43F012
S32D0000E7180043D3620B4AFB7953630A4BDB6A03F40033002B0CBF01230023DBB2002B00D0F3E7044B9B6BBB73F6
S32D0000E740BB7B18461437BD4680BC704700C00A4080B582B000AF204B03F580531B6B1E4A43F4805302F58052BF
S32D0000E76813631C4B4FF480721A651B4B5B691A4A43F480135361FFF7A3FF164B4FF400725A65144B4FF4007265
S32D0000E7909A65124B4FF40072DA65124B124A1A60104B124ADA6000237B607B68092B06DCFF20FFF72FFF7B68CA
S32D0000E7B801337B60F5E704A1D1E9000101F0BAFC00BF0837BD4680BD9A9999999999B93F0070044000A00440DC
S32D0000E7E040F00F4000C00A40000C00800500003E90B486B000AFF860B9607A60FB68534A93420AD1524B03F5FA
S32D0000E80880535B6B504A43F4806302F58052536345E0FB684D4A93420AD14B4B03F580535B6B494A43F40063F3
S32D0000E83002F58052536336E0FB68474A93420AD1434B03F580535B6B414A43F4805302F58052536327E0FB68E4
S32D0000E858404A93420AD13C4B03F580535B6B3A4A43F4005302F58052536318E0FB683A4A93420AD1344B03F5AD
S32D0000E88080539B6A324A43F4806302F58052936209E02F4B03F580539B6A2D4A43F4006302F580529362FB68D9
S32D0000E8A8DB78DBB223F00C03DAB2FB68DA70FB6800229A70BB684FF47A7203FB02F27B681B0192FBF3F39CB274
S32D0000E8D0FB681B78DBB223F01F03FB75230A9BB2DBB203F01F03DAB2FB7D1343DAB2FB681A70E2B2FB685A7042
S32D0000E8F8BB684FF4FA4203FB02F27B681B0192FBF3F39AB263019BB2D31A9CB2FB689B7ADBB223F01F03FB750A
S32D0000E920E3B203F01F03DAB2FB7D1343DAB2FB689A72FB68DB78DBB243F00C03DAB2FB68DA7000BF1837BD46FB
S32D0000E94890BC704700A006400070044000B0064000C0064000D0064000A00E4080B483B000AF78607B681B799F
S32D0000E970DBB203F02003002B0CBF01230023DBB2002B00D0F2E77B68DB79DBB218460C37BD4680BC704780B4A9
S32D0000E99883B000AF78600B46FB707B681B79DBB25BB2DB43DBB2DB09DBB2002B00D0F4E77B68FA78DA7100BF79
S32D0000E9C00C37BD4680BC704780B487B000AFF860B9607A60FB687B617B685A1E7A60002B14BF01230023DBB245
S32D0000E9E8002B06D07B695A1C7A61BA68D2B21A70EEE700BF1C37BD4680BC704780B584B000AF786039607B6852
S32D0000EA101B6BFB60FA683B689A4252D07B681B79002B35D07B6858787B6803F134010123FA6801F0F7F80346DF
S32D0000EA38002B14BF01230023DBB2002B01D001233CE07B6800221A717B685A6A7B681B6A1344FA689A4217D285
S32D0000EA607B68DB78FB72FB7A012B11D97B681B6AFA681344FB607B6858787B6803F134010123FA6801F0CEF8E2
S32D0000EA88FB7A013BFB72EAE73B68002B15D07B6858787B6803F1340101233A6800F0DAFF0346002B14BF012305
S32D0000EAB00023DBB2002B01D0012303E07B683A681A63002318461037BD4680BD80B584B000AF7860002178688A
S32D0000EAD8FFF794FF0346FB73FB7B002B40F093807B681B78032B7DD17B685B79002B79D07B6800221A637B686A
S32D0000EB0034334FF4007200211846FFF75DFF7B68552283F832227B68AA2283F833227B68522283F834207B6849
S32D0000EB28522283F835207B68612283F836207B68412283F837207B68722283F818227B68722283F819227B68F0
S32D0000EB50412283F81A227B68612283F81B227B681B69DAB27B6883F81C227B681B699BB21B0A9BB2DAB27B683B
S32D0000EB7883F81D227B681B691B0CDAB27B6883F81E227B681B691B0EDAB27B6883F81F227B68DB68DAB27B68AD
S32D0000EBA083F820227B68DB689BB21B0A9BB2DAB27B6883F821227B68DB681B0CDAB27B6883F822227B68DB68D7
S32D0000EBC81B0EDAB27B6883F823227B6858787B6803F134017B685A69012301F01FF87B6800225A717B685B78B0
S32D0000EBF000220021184601F0E1F80346002B14BF01230023DBB2002B01D00123FB73FB7B18461037BD4680BD88
S32D0000EC1880B582B000AF78600B467B807B68002B08D07B681B78002B04D07B68DB887A889A4201D0092311E027
S32D0000EC407B685B78184601F03BF9034603F00103002B14BF01230023DBB2002B01D0032300E000231846083799
S32D0000EC68BD4680BD80B586B000AF78607B681A687B689B8819461046FFF7CAFF0346FB75FB7D002B40F0AC80B5
S32D0000EC907B689B7903F02003002B00F0A5807B689B7903F04003002B1BD07B681B6858787B6803F128017B68AD
S32D0000ECB89A69012300F0B2FF0346002B14BF01230023DBB2002B01D001238AE07B689B7923F04003DAB27B6805
S32D0000ECE09A717B681A687B68DB6919461046FFF789FE0346FB75FB7D002B75D17B681B6A3B613B690B331A7823
S32D0000ED083B690B3342F02002D2B21A707B68DA683B691C33D2B21A707B68DB689BB21B0A9AB23B691D33D2B217
S32D0000ED301A707B68DB681A0C3B691E33D2B21A707B68DB681A0E3B691F33D2B21A707B681A693B691A33D2B2AF
S32D0000ED581A707B681B699BB21B0A9AB23B691B33D2B21A707B681B691A0C3B691433D2B21A707B681B691B0CCA
S32D0000ED809BB21B0A9AB23B691533D2B21A700023FB603B691633FA68D2B21A70FB689BB21B0A9AB23B691733C3
S32D0000EDA8D2B21A70FB681A0C3B691833D2B21A70FB681A0E3B691933D2B21A707B689B7923F02003DAB27B6884
S32D0000EDD09A717B681B6801221A717B681B681846FFF774FE0346FB75FB7D18461837BD4680BD80B584B000AF94
S32D0000EDF878607868FFF736FF0346FB73FB7B002B02D17B6800221A60FB7B18461037BD4680BD000080B588B098
S32D0000EE2000AF7860396080233B610F23FB604FF0FF337B610223FB61FB69B3F5807F23D80123BB61BB69102B65
S32D0000EE481AD8FB69BA6902FB03F33A6803FB02F27B68D31ABB60BB68002B09DBBB687A699A4205D9BB687B61C0
S32D0000EE70FB693B61BB69FB60BB690133BB61E1E7FB695B00FB61D7E71D4BDB6A1C4A23F00803D3621A4BDB6AD0
S32D0000EE9823F47F2323F47F63BB613B695B081B029AB2FB68013B1B01DBB21A43BB691343114A43F46023D362A5
S32D0000EEC00F4B5B6A03F00803002B0CBF01230023DBB2002B03D00A2001F01AF9F0E7084BDB6A074A43F0080313
S32D0000EEE8D362054B1B6B044A43F48013136300BF2037BD4680BD00BF00100B4080B582B000AF786039607B6889
S32D0000EF1000221A60414B424ADA62404BDB6A03F08073002B14BF01230023DBB2002B00D0F3E73A4B0022C3F824
S32D0000EF38C020384B4FF481325A60364B28229A62344B4FF001125A643B689B6833491846FFF760FF2F4B5B6A2E
S32D0000EF6003F00303002B14BF01230023DBB2002B00D0F3E72C4B40F243421A602A4B40F243425A60284B4FF49F
S32D0000EF8888629A60264B40F24342DA60244B40F243421A61224B40F243425A61214B03F580531B6B1F4A43F438
S32D0000EFB0003302F580521363184B4FF6FF721A63164B1B4A5A63154BDB6A144A43F00063D362124BDB6A03F045
S32D0000EFD80063002B14BF01230023DBB2002B00D0F3E70C4B5B6A03F48033002B14BF01230023DBB2002B02D06C
S32D0000F0007B6801221A60054B1B6B044A43F080031363002318460837BD4680BD00100B400080000160CC050005
S32D0000F02800D0044000700440B3007F0080B400AF064B5A6A40F207331340002B14BF01230023DBB21846BD46D6
S32D0000F05080BC704700100B4080B485B000AF7860074B1B6B7A681340FB60FB68002B00D1F6E7FB6818461437A4
S32D0000F078BD4680BC704700BF00100B4080B584B000AF78607B681B7803F03F03764A52F82330FB60FB68002B79
S32D0000F0A005D17B681B78002B01D00123DCE0714B1B6B704A43F0800313636E4B5B6A03F00103002B14BF01235B
S32D0000F0C80023DBB2002B00D0F3E7684A7B685B689360FB6823F44003FB607B685B789B0503F44003FA681343EA
S32D0000F0F0FB607B685B78022B03D1FB6843F40013FB607B685B78042B16D1FB6803F44033B3F5003F08D1FB681C
S32D0000F11823F44033FB60FB6843F44033FB6007E0FB6823F44033FB60FB6843F40033FB604E4B5B684D4A9BB2E5
S32D0000F14053607B68DB68002B2AD0FB6803F44033B3F5403F03D0FB6843F40013FB607B681B7A002B03D0FB68FB
S32D0000F16843F01003FB607B68DB68012B03D9FB6843F02003FB607B68DB68B3F1FF3F0BD03A4B5A687B68DB6846
S32D0000F1901B04384913434B60FB6843F00203FB60344B00221A60334AFB68D3603248FFF753FF0346012B14BF82
S32D0000F1B801230023DBB2002B09D02C4B1B6B2B4A43F4702343F001031363012348E0274B1B6B03F08003002B83
S32D0000F1E014BF01230023DBB2002B07D0214B1B6B204A43F001131363012335E01D4B1B6B03F48033002B14BF70
S32D0000F20801230023DBB2002B08D0184B1B6B174A43F0011313634FF0FF3321E0FB6803F44033002B15D0114B4F
S32D0000F2301A697B681A61FB6803F44033B3F5803F0BD10C4B5A697B685A610A4B9A697B689A61084BDA697B6858
S32D0000F258DA61064B1B6B054A43F001031363002318461037BD4680BD18CE010000100B4001000E0080B592B0AA
S32D0000F28000AF7860396000237B643B68BB63994B7B637B6B002B02D140F601235FE3964B3B633B6B002B02D118
S32D0000F2A840F60B2357E33B6B1B68FB62FB6A002B02D140F60B234EE37B6841F20932934200F23F837B68B3F5B7
S32D0000F2D0985F08D87B68032B00F01A837B68092B00F0098331E37B68A3F59853013B082B00F22B8301A252F892
S32D0000F2F823F000BF21F300000DF6000069F8000023F6000061F6000087F70000CFF7000011F700002BF70000C0
S32D0000F3207649786BFFF7EEFD78647B6C002B40F01083002387F84330002387F82B30002387F82A30002387F8DB
S32D0000F3482930002387F84230002387F8283000233B7200237B720023FB6000233B7400237B6107F108031846A0
S32D0000F370FFF788FE0346002B14BF01230023DBB2002B02D001237B64E8E240F24C4000F0BFFE08233B720023A8
S32D0000F3987B724FF4D573FB6000233B7400237B6107F108031846FFF769FEF863FB6B002B09D1BA69FB689A42BD
S32D0000F3C002D001237B64C9E2012387F84230012387F8283097F82830002B00F0A58037233B7200237B7200232E
S32D0000F3E8FB6000233B7400237B6107F108031846FFF744FEF863FB6B002B02D001237B64A8E269233B7200238B
S32D0000F4107B720023FB6000233B7400237B6107F108031846FFF72EFE0346002B14BF01230023DBB2002B02D0F7
S32D0000F43801237B648EE2BB6903F44013002B6FD00023FB630A2000F05FFEFB6B0133FB6337233B7200237B7254
S32D0000F4600023FB6000233B7400237B6107F108031846FFF707FE0346002B14BF01230023DBB2002B02D0012397
S32D0000F4887B6428E069233B7200237B7297F84230002B02D0184BFB6002E04FF44013FB6000233B7400237B61C6
S32D0000F4B007F108031846FFF7E5FD0346002B14BF01230023DBB2002B02D001237B6406E0BB69002B03DBFB6B61
S32D0000F4D8632B00D8B6E77B6C002B40F03882FB6B632B0BD9002387F8423019E03C170020401900200CCE01005B
S32D0000F50000003040012387F8433097F84230002B0AD0002387F84230BB6903F08043002B02D0012387F8423051
S32D0000F52897F82A30002B02D07B6B07221A6097F82930002B02D07B6B08221A6097F82B30002B02D07B6B0422E4
S32D0000F5501A6097F84330002B09D07B6B02221A6097F84230002B02D07B6B03221A6097F82B30002B0DD097F885
S32D0000F5784330002B09D07B6B05221A6097F84230002B02D07B6B06221A60924B00221A60904B00225A608F4BD7
S32D0000F5A000229A608D4B0022DA608C4B00221A618A4B00225A61FB6A9A68FB6A5B6819461046FFF72BFC854B96
S32D0000F5C840F243421A60834B40F243425A60814B4FF488629A607F4B40F24342DA607D4B40F243421A617B4B37
S32D0000F5F040F243425A617A4B03F580531B6B784A43F4003302F580521363A7E1B86BFFF739FDF863FB6B002B37
S32D0000F61800F09F8102237B649BE1BB6B002B02D10C237B6496E16D4BDB6A1B0A5B0003F4FF73FB63694BDB6A4E
S32D0000F6401B0903F00F035A1CFB6B02FB03F3FB63FB6A9A68FB6BB2FBF3F2BB6B1A607DE1BB6B002B02D10C2396
S32D0000F6687B6477E1BB6B1B68002B02D10C237B6470E1FFF7DBFC0346002B0CBF01230023DBB2002B3CD0534B82
S32D0000F69000221A60514B00225A60504B00229A604E4B0022DA604D4B00221A614B4B00225A61FB6A9A68BB6B57
S32D0000F6B81B6819461046FFF7ADFB464B40F243421A60444B40F243425A60424B4FF488629A60404B40F2434296
S32D0000F6E0DA603E4B40F243421A613C4B40F243425A613B4B03F580531B6B394A43F4003302F58052136329E101
S32D0000F70840F60A237B6425E1BB6B002B02D10C237B641FE1314B5B68C3F30C02BB6B1A6018E1BB6B002B02D199
S32D0000F7300C237B6412E1FFF77DFC0346002B0CBF01230023DBB2002B19D0BB6B1B68B3F5805F02D30C237B6401
S32D0000F75800E1224B5B68214A23F4FF5323F01F0353601E4B5A68BB6B1B68C3F30C031B4913434B60EEE040F6B4
S32D0000F7800A237B64EAE0BB6B002B02D10C237B64E4E0144B9B6A5B0803F00303FB63FB6B002B03D1BB6B0022C4
S32D0000F7A81A60D7E0FB6B012B03D1BB6B01221A60D0E0FB6B102B03D1BB6B02221A60C9E005237B64C6E0BB6B74
S32D0000F7D0002B09D10C237B64C0E000BF00D004400070044000100B40FFF724FC0346002B0CBF01230023DBB24D
S32D0000F7F8002B31D0BB6B1B68002B0AD1584B9B6A574A23F006039362554B554A9B6A9362A0E0BB6B1B68012B20
S32D0000F8200CD1514B9B6A504A23F0060393624E4B9B6A4D4A43F0020393628FE0BB6B1B68022B0AD1484B9B6A77
S32D0000F848474A23F006039362454B454A9B6A936280E005237B647DE040F60A237B6479E0BB6B002B02D10C2325
S32D0000F8707B6473E03C4BDB6A3B4A43F00063D362394BDB6A03F00063002B14BF01230023DBB2002B00D0F3E756
S32D0000F898334B1B6B03F08003002B14BF01230023DBB2002B08D02E4B1B6B2D4A43F0800313637B6B00221A60CF
S32D0000F8C0294B5B6A03F48033002B14BF01230023DBB2002B07D07B6B1B68002B06D17B6B01221A6002E07B6BAD
S32D0000F8E800221A607B6B1A68BB6B1A6032E0BB6B1C221A60BB6B043304221A60BB6B08334FF41E721A6025E0AE
S32D0000F9100220FFF7A1FB144B1B6B03F4E003002B14BF01230023DBB2002B07D00E4B1B6B0D4A43F4E0031363BC
S32D0000F93804237B640A4B1B6B094A43F03203136308E040F609237B6404E000BF02E000BF00E000BF7B6C18463E
S32D0000F9604837BD4680BD00BF00100B4080B489B000AF786039607B687B61364B3B613B69002B01D100235FE034
S32D0000F9883B691B68022B0BD03B691B68032B07D03B691B68072B03D03B691B68082B0BD12B4B5B6A03F004035F
S32D0000F9B0002B14BF01230023DBB2002B00D0F3E73B68FB61FB69002B3DD0FB69B3F5007F28BF4FF40073FB6064
S32D0000F9D8FB6803339B08BB61BB69002B2AD01C4B1B6B03F4E003002B14BF01230023DBB2002B09D0164B1B6BDC
S32D0000FA00154A43F4E00343F02003136300231BE0114B5B6A03F40063002B0CBF01230023DBB2002B00D0F3E75B
S32D0000FA280B497B691A1D7A610A6A1A60BB69013BBB61D1E7FA69FB68D31AFB61BEE7012318462437BD4680BC74
S32D0000FA50704700BF3C17002000100B4080B58EB000AFB9607A601A460346FB731346BB73414B7B63FB7B002B86
S32D0000FA7802D1BB7B002B01D1042375E03D4B1B78DBB203F00103002B14BF01230023DBB2002B01D0032367E004
S32D0000FAA0BB68002B01D1002362E07B6B1B7B002B02D17B685B027B60BB7B012B28D111233B7500237B757B68E9
S32D0000FAC8BB6101233B77BB7B3B6207F11403194641F20230FFF7CEFB0346002B0CBF01230023DBB2002B38D073
S32D0000FAF04FF40071B868FFF739FF0346002B14BF01230023DBB2002B2BD00023BB7328E012233B7500237B7554
S32D0000FB187B68BB6101233B77BB7B3B6207F11403194641F20230FFF7A5FB0346002B0CBF01230023DBB2002B70
S32D0000FB400FD0BB7B5B021946B868FFF70FFF0346002B14BF01230023DBB2002B01D00023BB73BB7B002B01D008
S32D0000FB68012300E0002300BF18463837BD4680BD281700200000002080B487B000AF786039607B68FB603B6891
S32D0000FB907B617B69002B3DD07B69B3F5007F28BF4FF400733B617A693B69D31A7B613B6903339B083B613B69FE
S32D0000FBB8002BEAD0184B1B6B03F4E003002B14BF01230023DBB2002B0AD0134B1B6B124A43F4E00343F0100300
S32D0000FBE013634FF0FF3316E00D4B5B6A03F48063002B0CBF01230023DBB2002B00D0F3E7FB681A1DFA60064A40
S32D0000FC081B6813623B69013B3B61D0E7012318461C37BD4680BC704700100B4080B58EB000AFB9607A601A4608
S32D0000FC300346FB731346BB735D4B7B63FB7B002B02D1BB7B002B01D10423ADE0594B1B78DBB203F00103002BA1
S32D0000FC5814BF01230023DBB2002B01D003239FE0524B1B78DBB203F00403002B14BF01230023DBB2002B01D0B1
S32D0000FC80022391E0BB68002B01D100238CE07B6B1B7B002B02D17B685B027B60BB7B012B28D118233B75002313
S32D0000FCA87B757B68BB6100233B77BB7B3B6207F11403194641F20230FFF7DCFA0346002B0CBF01230023DBB2E5
S32D0000FCD0002B38D04FF40071B868FFF751FF0346002B14BF01230023DBB2002B2BD00023BB7328E019233B7533
S32D0000FCF800237B757B68BB6100233B77BB7B3B6207F11403194641F20230FFF7B3FA0346002B0CBF0123002328
S32D0000FD20DBB2002B0FD0BB7B5B021946B868FFF727FF0346002B14BF01230023DBB2002B01D00023BB730D2358
S32D0000FD483B7500237B757B6B1B69BB6100233B7700233B6207F11403194641F20230FFF789FA0346002B14BF1C
S32D0000FD7001230023DBB2002B01D0012314E07A6A0D4B1340002B01D001230DE07B6A03F4F853B3F5106F00D0C3
S32D0000FD98D5E7BB7B002B01D0012300E0002300BF18463837BD4680BD28170020000000200880D9FF80B58CB00C
S32D0000FDC000AF03463A60FB710B46BB713A4BBB62FB79002B01D0042369E0012387F82F30364B1B78DBB203F082
S32D0000FDE80103002B14BF01230023DBB2002B01D0032358E0BB79032B50D801A252F823F019FE000021FE0000FD
S32D0000FE1031FE000041FE0000002387F82F3044E0BB6A9A683B681A60002387F82F303CE03B684FF400721A80DE
S32D0000FE38002387F82F3034E009233B7200237B72BB6A1B69FB6000233B7400237B6107F10803194641F2023002
S32D0000FE60FFF70CFA0346002B14BF01230023DBB2002B01D001231AE07B6A03F44003002B0CD13B6A9B0C03F0DD
S32D0000FE887F035A1C7B6A1B0A03F00303013B9A403B681A60002387F82F3002E0042387F82F3097F82F301846EA
S32D0000FEB03037BD4680BD00BF281700200000002080B483B000AF0346FB71FB79002B01D0012302E0034B1B781D
S32D0000FED8DBB218460C37BD4680BC70470000002080B483B000AF7860164B03F580539B6B144A43F0010302F50C
S32D0000FF0080529363124A7B689360114B05225A600F4B1B680E4A43F0010313600C4B1B6803F08003002B0CBF77
S32D0000FF2801230023DBB2002B00D0F3E7064B1B68054A23F00103136000BF0C37BD4680BC704700BF00700440EA
S32D0000FF500000044080B582B000AF786039607B68012B07D13B684FF6FF72934202D1034800F00EF800BF083791
S32D0000FF78BD4680BD4819002080B500AF4FF6FF710120FFF7E3FF80BD80B483B000AF78607B6800221A707B686B
S32D0000FFA018460C37BD4680BC7047000080B582B000AF78607B681B7883F00103DBB2002B21D0134B03F58053EF
S32D0000FFC81A464FF400639362104B4FF440721A620E4B4FF440725A620D4B1B68DA0F13445B104FF4614219466F
S32D0000FFF00A48FEF7FDFB642000F08AF87B6801221A70012300E0002318460837BD4680BD0070044000D0044052
S32D000100184C19002000B00E4080B582B000AF7860084611461A460346FB700B46BB7013467B707F210E48FEF7E4
S32D00010040AAFC08210C48FEF7A6FCFB7819460A48FEF7A1FCBB7819460748FEF79CFC7B7819460548FEF797FC8C
S32D00010068FF210348FEF793FC00BF0837BD4680BD00B00E4080B487B000AFF860B9607A60FB681F4AA2FB03234A
S32D000100909B09BA6813447B61FB681B4AA2FB031292094FF47A7101FB02F29B1AFB60FB68DB03154AA2FB0323A2
S32D000100B89B097A6813443B613B69DB0B7A6913447B613B69C3F30E033B610E4B1B687A699A4209D80B4B1B68A4
S32D000100E07A699A4206D1094B5B683A699A4201D9012300E00023002B00D0EAE700BF1C37BD4680BC704700BF31
S32D00010108D34D621000D0034080B584B000AF7860074B1B68FB60064B5B68BB607B68BA68F9681846FFF7A6FF75
S32D0001013000BF1037BD4680BD00D0034080B584B000AFC7E900010E4B1B68FB600C4B5B68BB604FF000020B4B7B
S32D00010158D7E9000105F0D2FC02460B461046194605F0A4FF0346BA68F9681846FFF782FF00BF1037BD4680BD27
S32D0001018000D0034000408F4080B584B000AF134B1B68FB60114B5B68BB60F86805F038FC02460B46C7E90023AB
S32D000101A8B86805F031FC4FF000020B4B05F0D0FD02460B46D7E9000105F0EAFA02460B46C7E90023D7E900230B
S32D000101D0104619461037BD4680BD00BF00D003400000E04080B483B000AF0B4B1B684FF47A7202FB03F37B60E6
S32D000101F8074B5B684FF47A7202FB03F3DB0B7A6813447B607B6818460C37BD4680BC704700D0034080B582B0B3
S32D0001022000AF78600B46FB70FB781946786800F005F87B6818460837BD4680BD80B483B000AF78600B46FB7063
S32D000102487B68FA781A707B681B781A46534B9B5C042B00F29E8001A252F823F079020100B3020100ED020100DC
S32D0001027027030100610301004B4A7B681B7819464A4B53F8213040F2031142F82310484B5A697B681B78194656
S32D00010298444B53F8213003F01F03012101FA03F3DB43414913404B6173E0404A7B681B7819463C4B53F8213068
S32D000102C040F2031142F823103B4B5A697B681B781946364B53F8213003F01F03012101FA03F3DB43344913400B
S32D000102E84B6156E0334A7B681B7819462D4B53F8213040F2031142F823102F4B5A697B681B781946274B53F81D
S32D00010310213003F01F03012101FA03F3DB43284913404B6139E0274A7B681B7819461F4B53F8213040F203110C
S32D0001033842F82310224B5A697B681B781946194B53F8213003F01F03012101FA03F3DB431B4913404B611CE07F
S32D000103601A4A7B681B781946104B53F8213040F2031142F82310164B5A697B681B7819460A4B53F8213003F0AE
S32D000103881F03012101FA03F3DB430F4913404B6100BF00BF0C37BD4680BC704718CF0100009004405CCF0100FD
S32D000103B000F00F4000A0044040F00F4000B0044080F00F4000C00440C0F00F4000D0044000F10F4080B485B009
S32D000103D800AF78600023FB607B681B781A46364B9B5C042B5CD801A252F823F0090401002904010049040100B6
S32D0001040069040100890401002E4B1B697A68127811462D4A52F8212002F01F02012101FA02F21340FB603FE01E
S32D00010428284B1B697A6812781146254A52F8212002F01F02012101FA02F21340FB602FE0214B1B697A681278B4
S32D0001045011461D4A52F8212002F01F02012101FA02F21340FB601FE01A4B1B697A6812781146154A52F82120CD
S32D0001047802F01F02012101FA02F21340FB600FE0134B1B697A68127811460D4A52F8212002F01F02012101FADD
S32D000104A002F21340FB6000BFFB68002B14BF01230023DBB218461437BD4680BC704700BF18CF010000F00F4012
S32D000104C85CCF010040F00F4080F00F40C0F00F4000F10F4080B584B000AF78600B46FB700B23FB73FA7BFB782C
S32D000104F01946786800F094F87B6818461037BD4680BD000080B485B000AF78607B68103B002B00DA1F335B1179
S32D00010518FB60FB68022B53D0FB68022B75DCFB68002B03D0FB68012B25D06EE0394BD3F880217B68103B5942D9
S32D0001054003F01F0301F01F0158BF4B42012101FA03F332491343C1F88031304B1A687B68103B594203F01F0399
S32D0001056801F01F0158BF4B42012101FA03F3294913430B6049E0274BD3F884217B68103B594203F01F0301F08F
S32D000105901F0158BF4B42012101FA03F31F491343C1F884311D4B5A687B68103B594203F01F0301F01F0158BF09
S32D000105B84B42012101FA03F3164913434B6024E0144BD3F888217B68103B594203F01F0301F01F0158BF4B42AA
S32D000105E0012101FA03F30D491343C1F888310B4B9A687B68103B594203F01F0301F01F0158BF4B42012101FAB3
S32D0001060803F3044913438B6000BF00BF1437BD4680BC704700E100E080B584B000AF78600B46FB701346BB708F
S32D000106307B68FA781A70BB78FB737B681B781A46574B9B5C042B00F2A68001A252F823F065060100B106010041
S32D00010658FD0601009507010049070100FB7B1B0403F470234D497A68127810464C4A52F8202043F4897343F084
S32D00010680010341F82230494B5A697B681B781946454B53F8213003F01F03012101FA03F3DB43424913404B6194
S32D000106A86720FFF72BFF72E0FB7B1B0403F470233D497A6812781046394A52F8202043F4897343F0010341F813
S32D000106D02230384B5A697B681B781946324B53F8213003F01F03012101FA03F3DB43314913404B616820FFF738
S32D000106F805FF4CE0FB7B1B0403F470232C497A6812781046264A52F8202043F4897343F0010341F82230274BEC
S32D000107205A697B681B7819461F4B53F8213003F01F03012101FA03F3DB43204913404B616920FFF7DFFE26E0FC
S32D00010748FB7B1B0403F470231B497A6812781046134A52F8202043F4897343F0010341F82230164B5A697B685A
S32D000107701B7819460C4B53F8213003F01F03012101FA03F3DB430F4913404B616B20FFF7B9FE00E000BF00BF42
S32D000107981037BD4680BD00BF18CF0100009004405CCF010000F00F4000A0044040F00F4000B0044080F00F40AF
S32D000107C000D0044000F10F40B0B48BB000AF224B3C1D1D460FCD0FC495E80F0084E80F0000237B627B6A072B72
S32D000107E830DC1C4BD3F8A0207B6A9B0028333B4453F8243C012101FA03F31340002B14BF01230023DBB2002B7C
S32D0001081018D0134A7B6A52F823305A1C10497B6A41F823200D4BD3F8A0207B6A9B0028333B4453F8243C0121B8
S32D0001083801FA03F307491340C1F8A0307B6A01337B62CBE700BF2C37BD46B0BC704700BF60D0010000A00440B0
S32D0001086078190020B0B489B000AF224B3C1D1D460FCD0FC495E8030084E803000023FB61FB69052B30DC1C4B1F
S32D00010888D3F8A020FB699B0020333B4453F81C3C012101FA03F31340002B14BF01230023DBB2002B18D0FB6993
S32D000108B00833124A52F823200132104941F823200D4BD3F8A020FB699B0020333B4453F81C3C012101FA03F383
S32D000108D807491340C1F8A030FB690133FB61CBE700BF2437BD46B0BC704700BF80D0010000B00440781900202A
S32D00010900B0B48DB000AF234B3C461D460FCD0FC40FCD0FC495E8070084E807000023FB62FB6A0A2B30DC1C4B43
S32D00010928D3F8A020FB6A9B0030333B4453F8303C012101FA03F31340002B14BF01230023DBB2002B18D0FB6ACC
S32D000109500E33124A52F823200132104941F823200D4BD3F8A020FB6A9B0030333B4453F8303C012101FA03F3B7
S32D0001097807491340C1F8A030FB6A0133FB62CBE700BF3437BD46B0BC704700BF98D0010000900440781900207F
S32D000109A0B0B487B000AF214B3C461D460FCD0FC42B68236000237B617B69042B30DC1C4BD3F8A0207B699B0039
S32D000109C818333B4453F8183C012101FA03F31340002B14BF01230023DBB2002B18D07B691933124A52F8232033
S32D000109F00132104941F823200D4BD3F8A0207B699B0018333B4453F8183C012101FA03F307491340C1F8A030C6
S32D00010A187B6901337B61CBE700BF1C37BD46B0BC704700BFC4D0010000D004407819002080B483B000AF7860CA
S32D00010A407B681B781A46044B53F8223018460C37BD4680BC704700BF7819002080B483B000AF78607B681B785A
S32D00010A681946044B002243F8212000BF0C37BD4680BC70477819002080B483B000AF78600B46FB707B68FA786B
S32D00010A901A707B6818460C37BD4680BC7047000080B586B000AF78607B681B781A463E4B53F822303B617B68C6
S32D00010AB81B781A463B4B9B5CFB733B69DBB203F01F03DAB2384B1A723B69DBB203F01F03DAB2354B5A72354BB2
S32D00010AE01022C3F88820FB7B002B13D13049324800F05AFA304B1B6803F08003802B14BF01230023DBB2002BA5
S32D00010B0800D0F3E72A4B1B697B6112E02649294800F046FA274B1B6803F08003802B14BF01230023DBB2002B55
S32D00010B3000D0F3E7214B1B697B611E4BD3F888311C4A43F01003C2F888311A4B9B68194A43F0100393607B692C
S32D00010B589BB2184604F058FF0DA3D3E9002304F0CDFF02460B46104619460BA3D3E9002305F0EEF802460B46DA
S32D00010B801046194605F0B6FA0346BB60BB6818461837BD4680BD00BFA4703D0AD7A30A4000000000E0FFEF408C
S32D00010BA8DCCF010038CF01005819002000E100E000B0034000B00B4080B586B000AF78607B681B781A46234BF4
S32D00010BD053F822303B617B681B781A46204B9B5CFB733B69DBB203F01F03DAB21D4B1A723B69DBB203F01F030B
S32D00010BF8DAB21A4B5A72FB7B002B13D11749184800F0CEF9164B1B6803F08003802B14BF01230023DBB2002B3E
S32D00010C2000D0F3E7104B1B697B6112E00D490F4800F0BAF90D4B1B6803F08003802B14BF01230023DBB2002B30
S32D00010C4800D0F3E7074B1B697B617B6918461837BD4680BDDCCF010038CF01006819002000B0034000B00B400D
S32D00010C7098B500AF204B5C221A701F4B10225A701D4B41F234225A801B4B45F278629A80194B10229A71184B20
S32D00010C980722DA71164B4FF4C022DA60144B1F221A72134B1F225A721149124800F078F90F49114800F074F93F
S32D00010CC00F4800F0D2F80D4800F0CFF80A490C4800F06AF90849094800F066F9094A064B14460FCB84E80F00AA
S32D00010CE8064B5C221A70054B0422DA7100BF98BD5819002000B0034000B00B406819002080B500AF064B1B68D7
S32D00010D100133054A136000F03DF8044B0122C3F80C2100BF80BD00BFFC1900200070034080B500AF0C4B01223E
S32D00010D381A600C4800F01AF8094B0322C3F80821094BD3F88831084A43F01003C2F88831054B9B68044A43F0A8
S32D00010D601003936000BF80BD00700340A086010000E100E080B483B000AF7860044A7B68C2F8003100BF0C37BB
S32D00010D88BD4680BC704700BF0070034080B584B000AF174B1B68FB60FB68002B24D0FB685B78FB71FB689B68F2
S32D00010DB0184600F023F80346BB71BB79002B13D0FB685B68012B0FDDFB689B681B69BB60BB68002B08D0BB6868
S32D00010DD85B685A1CBB685A60BB681B69BB60F3E7FB68DB68FB60D7E700BF1037BD4680BDF819002080B584B09B
S32D00010E0000AF78607868FFF7DBFEF8607B689B695B78FB72FB7A002B0FD17B68DB68FA689A420ADD7B689B695C
S32D00010E2801225A707B685B685A1C7B685A60012313E0FB7A012B0FD17B689B68FA689A420ADA7B689B6900224C
S32D00010E505A707B685B685A1C7B685A60012300E0002318461037BD4680BD80B485B000AF78607B681B6A23F079
S32D00010E7840027B681A627B685B6A23F00B027B685A627B685B6A43F007027B685A627B685B6A43F080027B6880
S32D00010EA05A627B681B6803F08003002B0CBF01230023DBB2002B00D0F3E77B685B6A03F04003402B0CBF0123B4
S32D00010EC80023DBB2002B01D0012364E00023FB817B68DB6CFB817B689B6C9AB2FB891344FB817B685B6C9AB21F
S32D00010EF0FB891344FB817B681B6C9AB2FB891344FB817B68DB6B9AB2FB891344FB817B689B6B9AB2FB89134493
S32D00010F18FB81FB895B08FB81FB896FEA43436FEA5343FB81FA897B68DA620023FB817B68DB6EFB817B689B6E28
S32D00010F409AB2FB891344FB817B685B6E9AB2FB891344FB817B681B6E9AB2FB891344FB817B68DB6D9AB2FB8986
S32D00010F681344FB817B689B6D9AB2FB891344FB81FB895B08FB81FB896FEA43436FEA5343FB81FA897B681A63E5
S32D00010F907B685B6A23F080027B685A62002318461437BD4680BC704780B483B000AF786039603B681B781A4677
S32D00010FB87B689A603B685B781A467B68DA603B685B881A467B689A613B689B881A467B68DA613B689B791A461B
S32D00010FE07B681A623B68DB791A467B685A623B68DA687B681A653B681B7A1A467B681A603B685B7A1A467B6896
S32D000110085A6000BF0C37BD4680BC704780B483B000AF78607B6818460C37BD4680BC704780B582B000AF7860B1
S32D0001103039607B68012B07D13B684FF6FF72934202D10348FFF7E6FF00BF0837BD4680BD001A002080B500AF8E
S32D000110584FF6FF710120FFF7E3FF80BD80B483B000AF78600B46FB707B68FA781A707B684FF4FA725A807B68A6
S32D0001108040F6C4129A807B68034A9A607B6818460C37BD4680BC7047000080BF80B483B000AF786039603B680E
S32D000110A8B3F5FA7F04DB3B6840F6C412934204DD7B684FF4FA725A8004E03B689AB27B685A8000BF00BF0C37F7
S32D000110D0BD4680BC704780B483B000AF786039603B68B3F5FA7F04DB3B6840F6C412934204DD7B6840F6C4127D
S32D000110F89A8004E03B689AB27B689A8000BF00BF0C37BD4680BC70472DE9904385B000AF786039604FF00001AA
S32D00011120386805F0E3FA0346002B02D04FF000033B603249386805F0F7FA0346002B01D02E4B3B607B689B68CB
S32D000111481946386805F0C4FA0346002B00D04BE07B683A689A607B685C887B689B881A467B685B88D31A18469A
S32D0001117004F05EFC4FF00002214B04F0EDFD02460B4690469946386804F064FC02460B464046494604F0B6FCE1
S32D0001119802460B461046194604F088FF03469BB22344FB81FB897B73FB891B0A9BB23B737F211248FDF7EBFBFC
S32D000111C005211048FDF7E7FB7B681B7819460D48FDF7E1FB3B7B19460A48FDF7DCFB7B7B19460848FDF7D7FB15
S32D000111E8FF210648FDF7D3FB00BF1437BD46BDE8908300BF000034430080664000B00E4080B582B000AF78609B
S32D00011210B84B4FF48072DA60B74B4FF480729A64B54B4FF480721A64B34B4FF480725A64B14B4FF48072DA60F9
S32D00011238B04B5B69AF4A43F008035361AE4B5B69AD4A43F480235361AB4B5B69AA4A43F480335361A84B5B6998
S32D00011260A74A43F400335361A54B1B68A44A43F008031360A24B5B69A14A43F0080353619E4B1B689D4A43F02A
S32D00011288080313609A4B4FF480725A62984B4FF480721A62954B4FF480721A61934B4FF480725A61914B4FF4D2
S32D000112B080729A618F4B4FF48072DA618D4B4FF480721A638B4B4FF480725A63894B4FF480729A63874B4FF46B
S32D000112D88072DA63854B4FF480721A64834B4FF480725A64814B4FF480729A647F4B4FF48072DA64814B4FF429
S32D0001130080721A607F4B4FF480729A607D4B4FF48072DA607B4B4FF480721A61784B5B69774A43F440735361C6
S32D00011328744B5B69734A43F47F2343F0F0035361734B5B69724A43F01D035361E221786800F0A8FD1D217868C8
S32D0001135000F04AFE0221786800F046FE0421786800F042FEE021786800F098FD0121786800F03AFE6420FEF7C1
S32D00011378CBFEE021786800F08DFD0321786800F02FFE0121786800F085FD0120FEF7BCFEE621786800F07EFD6B
S32D000113A00121786800F020FEA021786800F01CFEFF21786800F018FEB021786800F06EFD1C21786800F010FE36
S32D000113C80F21786800F00CFE0121786800F008FE3F21786800F004FE0021786800F000FEEF21786800F0FCFDFA
S32D000113F00021786800F0F8FDB421786800F04EFD0121786800F0F0FD9921786800F0ECFD0021786800F0E8FDD0
S32D000114184521786800F0E4FD0221786800F0E0FD0021786800F0DCFD0021786800F0D8FD0021786800F0D4FD6C
S32D00011440B621786800F02AFD0121786800F0CCFD0921786800F0C8FD0021786800F0C4FD0E21786800F0C0FDC7
S32D000114680221786800F0BCFD0021786800F0B8FD0021786800F0B4FDBA21786800F00AFD0F21786800F0ACFD06
S32D000114906420FEF73DFE3A21786800F0FFFC6021786800F0A1FD2A21786800F0F7FC0021786800F099FD0021AE
S32D000114B8786800F095FD0121786800F091FD3F21786800F08DFD2B21786800F0E3FC0021786800F085FD0021DA
S32D000114E0786800F081FD0021786800F07DFDEF2178680BE000B0044000A0044080F00F4040F00F4000C004402F
S32D00011508C0F00F4000F06CFD3621786800F0C2FC0021786800F064FDF021786800F0BAFC0421786800F05CFD40
S32D00011530B821786800F0B2FC0F21786800F054FD0121786800F050FD314B1B68304A43F0080313606420FEF702
S32D00011558DBFD3621786800F09DFC0021786800F03FFDF021786800F095FC0421786800F037FD0121786800F012
S32D00011580BCF91E226F21786800F082F8AF225621786800F0DBF80021786800F00AFA012301221C49786800F011
S32D000115A82BFA2921786800F075FC6420FEF7ACFDBE21786800F06EFC0E21786800F010FDF021786800F00CFD33
S32D000115D00121786800F008FD0021786800F004FD0021786800F000FD0F21786800F0FCFC786800F028FA012109
S32D000115F8786800F0DAF90021786800F0AFF900BF0837BD4680BD00BF40F00F40D8D0010080B582B000AF786075
S32D000116207B680022DA617B6801221A627B680E225A607B681A229A607B6800225A617B6800229A617B684FF40D
S32D00011648A072DA607B68F0221A617B6800221A70786801F0F9F97B6818460837BD4680BD80B582B000AF7860B7
S32D00011670064B1B78002B05D1044B01221A707868FFF7C2FD00BF0837BD4680BD481A002080B58AB002AFF8609D
S32D00011698B9607A607E23009362237A68B968F86800F08DFE40F24E733B610023FB61FA693B699A4240DA00236B
S32D000116C0BB61214AFB6913441B781A46BB69934232DAFB6901331C4AD35C002B06D1FF23FB75FF23BB75FF238C
S32D000116E87B7512E0FB690133154AD35C012B06D1D423FB750023BB7526237B7505E0B523FB75BA23BB75B023C8
S32D000117107B757B7DBA7DF97DF86800F0C9F80246FB68DA61F86801F093F9F86801F0CCF8BB690133BB61C4E70D
S32D00011738FB690233FB61BAE700BF2037BD4680BD0400002080B58AB002AFF860B9607A602723009395237A6890
S32D00011760B968F86800F02FFE40F2E6333B610023FB61FA693B699A4240DA0023BB61214AFB6913441B781A4601
S32D00011788BB69934232DAFB6901331C4AD35C002B06D1FF23FB75FF23BB75FF237B7512E0FB690133154AD35CF0
S32D000117B0012B06D10023FB750023BB7500237B7505E0D423FB750023BB7526237B757B7DBA7DF97DF86800F041
S32D000117D86BF80246FB68DA61F86801F035F9F86801F06EF8BB690133BB61C4E7FB690233FB61BAE700BF203798
S32D00011800BD4680BD5407002080B485B000AF78600B46FB70FB78062B29D801A252F823F0451801003D180100F9
S32D000118284B180100531801005B18010061180100691801006FF07F43FB6014E00023FB6011E04FF47F03FB6052
S32D000118500DE04FF47F43FB6009E0FF23FB6006E04FF41903FB6002E0044BFB6000BFFB6818461437BD4680BC80
S32D00011878704700BF9999990080B584B000AF786039603B681B0CFB733B681B0ABB733B687B737B7BBA7BF97B19
S32D000118A0786800F005F8034618461037BD4680BD80B487B000AF7860084611461A460346FB700B46BB7013469E
S32D000118C87B70FB789B08DBB27B61BB789B08DBB23B617B789B08DBB2FB607B691A033B699B011A43FB681343B3
S32D000118F018461C37BD4680BC704780B582B000AF78600B46FB70FB7819467868FFF77CFF03461946786800F0DD
S32D0001191804F800BF0837BD4680BD80B582B000AF7860396039687868FFF7A6FF02467B681A62786801F088F8CB
S32D00011940786800F0E9FB00BF0837BD4680BD80B582B000AF7860786800F0DEFB00BF0837BD4680BD80B582B04A
S32D0001196800AF78600B46FB70FB7819467868FFF747FF03461946786800F004F800BF0837BD4680BD80B582B006
S32D0001199000AF7860396039687868FFF771FF02467B681A62786801F053F800BF0837BD4680BD80B582B000AF0A
S32D000119B878600B46FB70FB7819467868FFF720FF03461946786800F004F800BF0837BD4680BD80B582B000AFDD
S32D000119E07860396039687868FFF74AFF02467B68DA61786801F02CF800BF0837BD4680BD80B586B000AFF8609C
S32D00011A08B9607A603B6000237B617B69BA6813441B78002B0FD07B69BA6813441B783A687968F86800F00AFE5D
S32D00011A307B680C337B607B6901337B61E9E700BF1837BD4680BD80B582B000AF7860FCF77FFE67210120FCF77E
S32D00011A58EAFD00210220FCF7E6FDA0210320FCF7E2FD50210420FCF7DEFD20210520FCF7DAFD20210620FCF7BC
S32D00011A80D6FD77210720FCF7D2FD00210820FCF7CEFD00210920FCF7CAFD00210A20FCF7C6FD04210B20FCF794
S32D00011AA8C2FD7B684FF0FF32DA637B684FF0FF321A6400BF0837BD4680BD00000000000080B586B000AFF8603F
S32D00011AD0B9607A600020FCF7CCFD0346FB75FB7D03F00203002B00F0CE80FCF7DFFDE020FCF790FD0220FEF720
S32D00011AF80BFBFCF7E5FD0120FEF706FBFCF7D2FDA520FCF783FD0120FEF7FEFAFCF7A5FD03469BB21B02BB8240
S32D00011B20FCF79FFD03469AB2BB8A1343BB82FCF798FD03469BB21B027B82FCF792FD03469AB27B8A13437B82F3
S32D00011B48BB8A1B09BB827B8A1B097B82FCF7B8FDFB68DB6BB3F1FF3F34D1FB681B6CB3F1FF3F2FD1BA8AFB68F7
S32D00011B70DA637A8AFB681A647B8AC3F57F630F337B82BB8A184603F053FF49A3D3E9002303F0B8FF02460B4650
S32D00011B981046194604F0AAFA0246BB681A607B8A184603F041FF42A3D3E9002303F0A6FF02460B4610461946AC
S32D00011BC004F098FA02467B681A605AE0FB68DA6BBB8AD31A1946F86800F074F80346632B0CDCFB681A6C7B8AEF
S32D00011BE8D31A1946F86800F069F80346632B01DC012300E00023002B2FD0BA8AFB68DA637A8AFB681A647B8AFE
S32D00011C10C3F57F630F337B82BB8A184603F008FF23A3D3E9002303F06DFF02460B461046194604F05FFA024648
S32D00011C38BB681A607B8A184603F0F6FE1CA3D3E9002303F05BFF02460B461046194604F04DFA02467B681A607D
S32D00011C600FE0BB68164A1A607B68154A1A60FB684FF0FF32DA63FB684FF0FF321A64002310E001230EE0BB6804
S32D00011C880D4A1A607B680C4A1A60FB684FF0FF32DA63FB684FF0FF321A64002318461837BD4680BDAFF3008016
S32D00011CB0144001144001B43F1EE0011EE001AE3F000080BF80B483B000AF786039603B68002B02DA3B685B42CD
S32D00011CD83B603B6818460C37BD4680BC704780B584B000AF786039600023FB60786800F0D2FAFB683A68134409
S32D00011D001B78002B12D07B6859697B689869FB683A6813441B780246786800F079FC786800F0D1FAFB680133DD
S32D00011D28FB60E6E700BF1037BD4680BD80B592B000AF786039604FF00001386804F0E6FC0346002B1FD03868CE
S32D00011D5004F0F4FC03467B64786C04F0D5FA03461946386804F01AFA03461F49184604F01FFB0346184604F0A9
S32D00011D78E1FC03463B6407F10C003B6C7A6C194905F072FD22E03B6883F000433B60386804F0D0FC03467B64A2
S32D00011DA0786C04F0B1FA03461946386804F0F6F903460D49184604F0FBFA0346184604F0BDFC03463B6407F14C
S32D00011DC80C003B6C7A6C084905F04EFD07F10C0319467868FFF783FF00BF4837BD4680BD00007A44F4D0010003
S32D00011DF0E8D0010080B584B000AFF860C7E90023D7E9000104F076F903461946F868FFF791FF00BF1037BD460D
S32D00011E1880BD80B582B000AF78600B46FB70786800F039FA7B6859697B689A69FB78786800F0EAFB786800F02E
S32D00011E4042FA00BF0837BD4680BD80B582B000AF78603960786800F022FA39687868FFF742FF786800F006FAFE
S32D00011E6800BF0837BD4680BD80B582B000AF78600B46FB70786800F00EFAFB7819467868FFF7C7FF786800F04D
S32D00011E90F1F900BF0837BD4680BD000080B483B000AF78600B46FB704D4B1B684C4A23F0080313604B4B1B68F6
S32D00011EB84A4A23F480231360484B1B68474A43F480331360454B1B68444A23F440731360414B1B68404A23F4A8
S32D00011EE0435323F0300313603E4B1A68FB785B0203F400733B4913430B603A4B1A68FB785B101B0203F480730E
S32D00011F08364913430B60344B1A68FB789B101B0103F01003304913430B602F4B1A68FB78DB105B0103F0200323
S32D00011F302B4913430B602A4B1A68FB781B119B0103F04003264913430B60254B1A68FB785B11DB01DBB2224910
S32D00011F5813430B60204B1A68FB789B111B0303F480531D4913430B601B4B1A6897F90330DB115BB25B0303F485
S32D00011F800053174913430B60164B1B68154A23F400331360134B1B68124A43F4003313600F4B1B680E4A43F03C
S32D00011FA8080313600D4B1B680C4A43F440731360094B1B68084A43F4435343F030031360064B1B68054A43F4D5
S32D00011FD08023136000BF0C37BD4680BC704700BF80F00F4040F00F4080B483B000AF78600B46FB70464B1B6819
S32D00011FF8454A23F008031360444B1B68434A43F480331360414B1B68404A43F4802313603E4B1B683D4A23F40E
S32D00012020407313603A4B1B68394A23F4435323F030031360374B1A68FB785B0203F40073344913430B60334B80
S32D000120481A68FB785B101B0203F480732F4913430B602D4B1A68FB789B101B0103F01003294913430B60284BE9
S32D000120701A68FB78DB105B0103F02003244913430B60234B1A68FB781B119B0103F040031F4913430B601E4BCE
S32D000120981A68FB785B11DB01DBB21B4913430B60194B1A68FB789B111B0303F48053164913430B60144B1A683C
S32D000120C097F90330DB115BB25B0303F40053104913430B600F4B1B680E4A23F4003313600C4B1B680B4A43F41B
S32D000120E800331360084B1B68074A43F008031360064B1B68054A23F48023136000BF0C37BD4680BC704700BF44
S32D0001211080F00F4040F00F4080B586B000AF78607B6800225A617B6800229A617B681B6AFB60FB68FB72FB68BA
S32D000121381B0ABB72FB681B0CDBB203F003037B722A217868FFF7A6FE00217868FFF748FF00217868FFF744FFEC
S32D0001216001217868FFF740FF3F217868FFF73CFF2B217868FFF792FE00217868FFF734FF00217868FFF730FFA6
S32D0001218800217868FFF72CFFEF217868FFF728FF2C217868FFF77EFE314B1B68304A23F4407313602F4B1B68A7
S32D000121B02E4A23F47F2323F0F00313602C4B1B682B4A23F01D031360274B1A687B681B6B254913430B60254B45
S32D000121D81A687B685B6B234913430B60224B1A687B689B6B204913430B601E4B1B681D4A23F0080313601A4B35
S32D000122001B68194A43F48023136000237B617B69EF2B19D800233B613B69B3F5A07F0FD2114B1B68104A23F433
S32D00012228003313600E4B1B680D4A43F4003313603B6901333B61EBE77B6901337B61E2E7084B1B68074A43F074
S32D0001225008031360044B1B68034A23F48023136000BF1837BD4680BD40F00F4080F00F40C0F00F4080B483B0A3
S32D0001227800AF78607B689B69002B07DD7B685B695A1C7B685A617B6800229A6100BF0C37BD4680BC704780B5D2
S32D000122A082B000AF78607B685A697B685B689A4205DB7B6800225A617868FFF72DFF00BF0837BD4680BD80B519
S32D000122C882B000AF78607B689B695A1C7B689A617B689A697B689B689A4205D17868FFF7C5FF7868FFF7D7FF2F
S32D000122F000BF0837BD4680BD80B586B002AFF860B9607A600123009301237A68B968F86800F059F8F86800F04B
S32D00012318D7FA00BF1037BD4680BD80B485B000AF786039607B681B68FB603B681A687B681A603B68FA681A6034
S32D0001234000BF1437BD4680BC704780B586B002AFF860B9607A603B60BA683B681A447B68009313467A68B96877
S32D00012368F86800F0ABF8BA683B68D118BA683B68D0187A68BB691344009303467A68F86800F09CF8BA683B6834
S32D00012390D1187A68BB69D0187A68BB6913440093BB680246F86800F08DF87A68BB691A447B680093BB68B968F9
S32D000123B8F86800F083F800BF1037BD4680BD80B588B000AFF860B9607A603B60FB681B78022B03D0FB681B78F7
S32D000123E0032B11D17B68FB61BA6AFB691344013BBB61FB68DA68BB68D31A3B613B683A69D31A01337B610DE0C7
S32D00012408BB68FB613A68FB691344013BBB617B687B61BA6A7B691344013B3B612A21F868FFF738FDFB691B0A1C
S32D00012430DBB203F00F03DBB21946F868FFF7D4FDFB69DBB21946F868FFF7CEFDBB691B0ADBB203F00F03DBB2FF
S32D000124581946F868FFF7C4FDBB69DBB21946F868FFF7BEFD2B21F868FFF714FD7B691B0ADBB203F00F03DBB2E3
S32D000124801946F868FFF7B0FD7B69DBB21946F868FFF7AAFD3B691B0ADBB203F00F03DBB21946F868FFF7A0FDC4
S32D000124A83B69DBB21946F868FFF79AFD2C21F868FFF7F0FC00BF2037BD4680BD90B58BB000AFF860B9607A6029
S32D000124D03B603A68BB68D31A1946F868FFF7F2FBF861BA6B7B68D31A1946F868FFF7EAFBB861BA69FB699A428A
S32D000124F8CCBF01230023FB75FB7D002B0CD03A1D07F1080311461846FFF707FF3B4607F138011846FFF701FFE3
S32D00012520BA683B689A420CDD3A4607F1080311461846FFF7F6FE3B1D07F138011846FFF7F0FE3A68BB689A4274
S32D0001254806D1BB687A681946F868FFF7D1FE55E0BA6B7B68D31A184603F0D2FE04463A68BB68D31A184603F06C
S32D00012570CBFE03461946204603F0CEFF03463B617B68184603F0C0FE03467B62BB683B623B683A6A9A4235DCB4
S32D00012598FB7D002B14D0786A03F058FA4FF00002184B03F0F5F802460B461046194603F055FD03463A6A194603
S32D000125C0F868FFF799FE13E0786A03F043FA4FF000020E4B03F0E0F802460B461046194603F040FD03461A466E
S32D000125E8396AF868FFF784FE3969786A03F0D4FD03467B623B6A01333B62C5E72C37BD4690BD00BF0000E03F28
S32D0001261080B584B000AFF860B9607A60FB707A6813465B0013449B00991CBA6813461B011344DA1CFB78F868D9
S32D0001263800F004F800BF1037BD4680BD80B58EB002AFF860B9607A60FB70FB780A2B06D1F868FFF720FEF86814
S32D00012660FFF708FEF2E0FB787D2B02D8FB781F2B01D82023FB70FB78203BFB70112300930C237A68B968F868B2
S32D00012688FFF79DFEFA7813469B0013446F4AD35C3B75FA7813469B00134401336B4AD35C7B75FA7813469B0012
S32D000126B013440233674AD35CBB75FA7813469B0013440333634AD35CFB75FA7813469B00134404335F4AD35C54
S32D000126D83B760023BB62BB6A062B00F3A180F86800F050F9F86800F0B3F8002387F82F3000237B627B6A042BCF
S32D0001270035DC07F114027B6A13441B7803F00103002B14BF01230023FB76FB7E002B11D097F82F3083F0010325
S32D00012728DBB2002B03D0F86800F0CAF802E0F86800F08EF8F86800F08BF80DE097F82F30002B03D0F86800F031
S32D000127501DF902E0F86800F07FF8F86800F07CF8FB7E87F82F307B6A01337B62C6E797F82F30002B03D0F86891
S32D0001277800F008F902E0F86800F06AF8F86800F067F8002387F82F3000233B623B6A042B42DC07F114023B6A98
S32D000127A013441B7803F00103002B14BF01230023BB76BB7E002B11D097F82F3083F00103DBB2002B03D0F8681E
S32D000127C800F07EF802E0F86800F042F8F86800F03FF80DE097F82F30002B03D0F86800F0D1F802E0F86800F065
S32D000127F033F8F86800F030F8BB7E87F82F3007F114023B6A13441B785B08D9B207F114023B6A13440A461A7091
S32D000128183B6A01333B62B9E7BB6A0133BB625AE7F86800F0AFF8002387F82F300123FB61FB69232B06DCF86858
S32D0001284000F00AF8FB690133FB61F5E73037BD4680BD00BF3C0B002080B483B000AF7860174B1B68164A43F470
S32D0001286880331360154B1B68144A23F008031360114B1B68104A43F4802313600E4B1B680D4A23F400331360D3
S32D000128900B4B1B680A4A43F400331360094B1B68084A43F008031360054B1B68044A23F48023136000BF0C37E5
S32D000128B8BD4680BC704700BF40F00F4080F00F4080B483B000AF78602B4B1B682A4A43F480331360294B1B684F
S32D000128E0284A23F008031360254B1B68244A43F480231360224B1B68214A23F440731360204B1B681F4A23F412
S32D000129087F2323F0F00313601D4B1B681C4A23F01D031360184B1A687B685B6A164913430B60164B1A687B681B
S32D000129309B6A144913430B60134B1A687B68DB6A114913430B600E4B1B680D4A23F4003313600B4B1B680A4A15
